:100000000C948B030C94D2030C94D2030C94D20363
:100010000C94D2030C94D2030C94D2030C94D2030C
:100020000C94D2030C94D2030C941B2D0C94EF2D42
:100030000C94A1270C94D2030C94D2030C94D203F9
:100040000C94D2030C94D2030C94D2030C94D203DC
:100050000C94D2030C94F8270C94D2030C94D20382
:100060000C94D2030C94D2030C94D2030C94D203BC
:100070000C94D2030C94D2030C94D2030C94D203AC
:100080000C94D2030C94D2030C94D2030C94D2039C
:100090000C94D2030C94D2030C94D2030C94D2038C
:1000A0000C94D2030C94D2030C94D20335001E009E
:1000B0001F0020002100220023002B0014001A0042
:1000C0000800150017001C00E000040016000700DF
:1000D00009000A000B00E1001D001B0006001900CA
:1000E000050011008A41E300E20000002C0000003E
:1000F000000024002500260027002A001601A80081
:1001000018000C001200130031002D002E000D000D
:100110000E000F00000028002F00300010003800F3
:100120000000E500E4003300340000000000E600B9
:10013000E7008B423600370029003A003B003C00C4
:100140003D003E003F0001000000000000000000F4
:10015000000000000100000000000000000000009E
:10016000000001000000000000000000000000008E
:10017000010001000100000001000000000040003B
:100180004100420043004C0001000100000000005B
:10019000000000000000000000000000000000005F
:1001A000000001001B0100000000000000005200E0
:1001B00001000601190100000000500051004F002D
:1001C0001D011C01000000000000000000000000F4
:1001D000000046004B0052004E00000000000000EE
:1001E0000100500051004F0000000000000001001D
:1001F00000000000000000000000000003510100AA
:1002000001000000010000000000000000000000EC
:1002100000000000010001000000000000000000DC
:1002200000000000000000000000000000000100CD
:1002300000000000000000000000010001000000BC
:1002400000000000000001000100010000000000AB
:100250000000C25CCD5CCE5CCF5CD05CD15C0100A8
:10026000000000000000000000000000010000008D
:10027000000000000000000000000100000000007D
:10028000000000000000000001000100010000006B
:10029000010000000000D25CD35CD45CD55C00009F
:1002A0000100010000000000000000000000C35C2D
:1002B000C45C00000000000000000100C55CC65CDA
:1002C00000000000000001000100C75CC85C0000E5
:1002D0000000010001000100C95CCA5C00000000D0
:1002E000000000002A2B2800000000000000000091
:1002F0000000000000000029000000002C1E342037
:10030000212224342627252E362D3738271E1F205C
:100310002122232425263333362E37381F040506A1
:100320000708090A0B0C0D0E0F10111213141516E5
:100330001718191A1B1C1D2F3130232D35040506E3
:100340000708090A0B0C0D0E0F10111213141516C5
:100350001718191A1B1C1D2F3130354C00000000D6
:10036000000000000000000000000000000000008D
:10037000000000000000000000000000000000007D
:100380007E0F00D4FFFFFFC7000000781E0F05009E
:10039000047F3F1F643214643214783C1E1E140A1A
:1003A000052223252628292A2C2D2F3032333536B5
:1003B000383A3B3D3E4042434547494A4C4E5051F6
:1003C000535557595A5C5E6062646668696B6D6F1D
:1003D00071737577797B7D7F81838587898A8C8E20
:1003E00090929496989A9C9E9FA1A3A5A7A8AAAC28
:1003F000AEAFB1B3B4B6B8B9BBBCBEBFC1C2C3C562
:10040000C6C7C9CACBCCCDCED0D1D2D2D3D4D5D603
:10041000D7D7D8D9D9DADADBDBDBDCDCDCDCDCDD36
:10042000DDDDDDDCDCDCDCDCDBDBDBDADAD9D9D81A
:10043000D7D7D6D5D4D3D2D2D1D0CECDCCCBCAC9B2
:10044000C7C6C5C3C2C1BFBEBCBBB9B8B6B4B3B1E1
:10045000AFAEACAAA8A7A5A3A19F9E9C9A9896947C
:1004600092908E8C8A89878583817F7D7B79777551
:1004700073716F6D6B6968666462605E5C5A595730
:10048000555351504E4C4A4947454342403E3D3BEF
:100490003A3836353332302F2D2C2A292826252379
:1004A00022FFAA7F55400001010101010101010164
:1004B0000202020202020202020303030303030315
:1004C00003040404040404040505050505060606E2
:1004D0000606070707070708080808090909090A9F
:1004E0000A0A0B0B0B0C0C0C0D0D0D0E0E0E0F0F44
:1004F0000F101011111112121313141415151616D2
:100500001717181819191A1A1B1B1C1D1D1E1E1F40
:100510002020212222232424252626272829292A8F
:100520002B2C2D2D2E2F30313232333435363738B7
:10053000393A3B3C3D3E3F404142434445464748B3
:10054000494A4C4D4E4F50515354555658595A5B89
:100550005D5E5F616264656668696B6C6D6F707229
:10056000737577787A7B7D7E8082838587888A8C95
:100570008E8F91939596989A9C9EA0A2A3A5A7A9C9
:10058000ABADAFB1B3B5B7BABCBEC0C2C4C6C9CBC0
:10059000CDCFD1D4D6D8DBDDDFE2E4E7E9EBEEF076
:1005A000F3F5F8FAFDFF10037400790078006F008E
:1005B00073003600330000000E036D00610072000E
:1005C00062007900330000000403090409025B00A3
:1005D000030100A0FA090400000103010100092140
:1005E000110100012240000705810308000A0904E7
:1005F0000100020300000009211101000122220074
:1006000007058203200001070503032000010904F8
:1006100002000103000000092111010001227B00FA
:100620000705840320000A1201100100000008EDF4
:10063000FE00000100010200010660FF0961A10146
:100640000962150026FF00952075088102096315CF
:100650000026FF00952075089102C005010902A13E
:100660000185020901A100050919012908150025C4
:1006700001950875018102050109300931158125AF
:100680007F95027508810609381581257F950175CA
:10069000088106050C0A38021581257F9501750829
:1006A0008106C0C005010980A101850319012AB78F
:1006B00000150126B700950175108100C0050C09D1
:1006C00001A101850419012AA002150126A00295A5
:1006D0000175108100C005010906A101050719E097
:1006E00029E7150025019508750181029501750816
:1006F00081010507190029FF150026FF00950675E1
:1007000008810005081901290595057501910295D3
:100710000175039101C011241FBECFEFDAE0DEBFE7
:10072000CDBF04B603FE27C08091360390913703F6
:10073000A0913803B09139038730904BA740B04B5C
:10074000D1F41092360310923703109238031092AE
:10075000390314BE84B7877F84BF0FB6F894A89579
:1007600080916000886180936000109260000FBEED
:10077000E0E0F8E3099511E0A0E0B1E0E8E9F2E695
:1007800002C005900D92AE3EB107D9F723E0AEEE60
:10079000B1E001C01D92A633B207E1F70E94DB2948
:1007A0000C9413310C94000008950C94D403089514
:1007B0000C94D703E82FF0E0E051FE4F80810895BC
:1007C0000895FF920F931F93CF93DF93A3E3B1E0BC
:1007D000ED0161E070E08991E82FE295EF70F0E0C3
:1007E00041A18F709B0101C0220F8A95EAF7922FD9
:1007F0009095942391A382A1822B82A381E0CD3393
:10080000D80749F7CCE2D1E023E331E0AE0161E063
:1008100070E0FA018191AF01E82FE295EF70F0E00E
:10082000F1A08F708B0101C0000F8A95EAF7902F1D
:1008300090959F2191A382A1802B82A32417350735
:1008400041F761E070E08991E82FE295EF70F0E008
:1008500011A18F70AB0101C0440F8A95EAF7942F64
:100860009095912391A382A1842B82A32C173D07FD
:1008700051F761E070E08D91E82FE295EF70F0E0C4
:1008800041A18F709B0101C0220F8A95EAF7922F38
:100890009095942391A382A1822B82A3F1E0AD33A2
:1008A000BF0749F7EAEFF1E0A0EFB1E084E092E0A2
:1008B00011921D928E179F07D9F78AE00E940B0AAA
:1008C000DF91CF911F910F91FF900C94A6062F926C
:1008D0003F925F926F927F928F929F92AF92BF9260
:1008E000CF92DF92EF92FF920F931F93CF93DF93FC
:1008F000FAEF2F2EF1E03F2EAFEF8A2EA1E09A2ED5
:10090000B3E3EB2EB1E0FB2EC0E0AA24A394B12CFC
:10091000D1017C90F10111921F01D7018D917D01D0
:10092000E82FE295EF70F0E091A18F70B50101C062
:10093000660F8A95EAF7892F862B81A382A1D62F8D
:10094000D0958D2382A3B0EABA95F1F72CE231E07D
:10095000690190E080E0A10141505109D6015D900C
:100960006D01052D02950F7010E0D80190960C9145
:10097000DA016C9010E0B52DBF7002C01595079597
:10098000BA95E2F710E000FD06C01A2D082E01C04E
:10099000110F0A94EAF71629DA011C9301968730A1
:1009A0009105E1F681A1D823D1A382A1682B62A38E
:1009B00081E09C91971101C080E0C82B82149304C0
:1009C00009F0A6CF50E040E061E070E0E8E36E2E71
:1009D000E1E07E2EF90181919F01E82FE295EF7011
:1009E000F0E0D1A18F708B0102C0000F111F8A951A
:1009F000E2F7C8019D2F982B91A392A1809589239E
:100A000082A310EA1A95F1F78B01042E01C0000FA2
:100A10000A94EAF7802E0095EFEFF1E093E3E92ED8
:100A200091E0F92ED0E06F019080D7011D917D01FA
:100A3000A12EA2948FE0A822B12CD50190968C9182
:100A400090E01F7002C0959587951A95E2F780FD9A
:100A500044C0882D892980833196D6018C919812C3
:100A6000D1E06E147F04F9F6F90131978081E82F07
:100A7000E295EF70F0E0F1A08F708B0101C0000FE4
:100A80008A95EAF7902F90959F2191A382A1802BC0
:100A900082A3CD2B4F5F5F4F4730510509F09ACFAE
:100AA0002C2F4AE060EF71E08AEF91E00E940C0A7F
:100AB0000E94AA068C2FDF91CF911F910F91FF907A
:100AC000EF90DF90CF90BF90AF909F908F907F90EE
:100AD0006F905F903F902F900895802F8921BBCF1A
:100AE00081110AC08CE191E0611102C08DE191E0B9
:100AF0000E94E60581E008958130E1F789EA6111FD
:100B000001C08AEA0E94EE1DF5CFCF93DF939C01CE
:100B10003A9521153F4168F5EC01CC27D170DC01F5
:100B2000AA27B270AC01442754709C012227387068
:100B300094FF11C080E1CD2B09F480E0AB2B09F0CC
:100B40008062452B09F08064232B09F08068FB014B
:100B5000DF91CF91099481E0CD2B09F480E0AB2B9C
:100B600009F08260452B09F08460232B81F38860B3
:100B7000EECFDF91CF910895CF93DF93EC01805EAC
:100B80009109089720F06CE470E2209711F466EF69
:100B90007DE1CE010E9485058C2FDF91CF910C94D1
:100BA000EF1CCF93DF93EC010E94811DCE01805E8C
:100BB0009109089720F063E570E2209711F46DEF3A
:100BC0007DE1CE01DF91CF910C948505CF93DF932A
:100BD000EC010E94BC05CE01DF91CF910C94D105B0
:100BE00081E0089581E008950C94F20508950C9435
:100BF000F6051F93CF93DF9300D000D00F92CDB7AF
:100C0000DEB749835A836B833091790289819A8157
:100C100031111DC06623B9F02223A9F00E94E224FD
:100C2000182F682F89819A810E948E2469817A8188
:100C3000812F0F900F900F900F900F90DF91CF9119
:100C40001F910C9493180E94BA24182FEFCF0E9482
:100C5000E22469817A81EDCFFC01262F4081518108
:100C60006281738184810C94F905CF93DF93EC0149
:100C700060E00E942C06BE01DF91CF910C94F70535
:100C80008F929F92AF92BF92CF92DF92EF92FF929C
:100C90000F931F936B017C0181E090E0A0E0B0E036
:100CA0004C015D0104C0880C991CAA1CBB1C4A9510
:100CB000D2F7B501A4014C015D0104C0880C991C58
:100CC000AA1CBB1C2A95D2F7482959296A297B29D5
:100CD00004C0880F991FAA1FBB1F0A95D2F78A016B
:100CE0009B010C211D212E213F21041715072607EA
:100CF000370789F48C299D29AE29BF29BC01CD0174
:100D00001F910F91FF90EF90DF90CF90BF90AF9029
:100D10009F908F90089580959095A095B0958C2187
:100D20009D21AE21BF21EACF0F93382F262F60914E
:100D3000DF027091E0028091E1029091E202042FC3
:100D4000432F0E9440060F910C94CC230E94E70988
:100D50000C94D5030C94D80308950E9470200E942F
:100D6000AC062FEF84E39CE0215080409040E1F7F7
:100D700000C000000C941C280F931F93CF93DF93A7
:100D80008C0161E00E942C06EC01B8010E947A16E9
:100D9000882309F441C0B801CE010E94F4058823DC
:100DA000D9F1B801CE010E94CA198823A9F1B8016E
:100DB000CE010E941C1A882379F1B801CE010E944D
:100DC0003F1B882349F1B801CE010E9426148823D5
:100DD00019F1F8018281882361F0CA35FDE5DF074A
:100DE00021F170F4C115ECE5DE07A1F0CE3DDC4544
:100DF000C9F0C801DF91CF911F910F910C94F005BC
:100E0000CB358DE5D807A1F0CC35DD4591F70E94B3
:100E10008925EFCF0E94AD0680E0DF91CF911F9131
:100E20000F9108950E94F526F7CF0E949225E1CFF9
:100E30000E949525DECFDF92EF92FF920F931F93D2
:100E4000CF93DF93E82FF0E0E452FD4FD490282FAA
:100E500026952695269530E0F901E458FC4F04913B
:100E6000877010E0082E02C0159507950A94E2F7E6
:100E700001701127F901E459FC4FE490F12C082E80
:100E800002C0F594E7940A94E2F791E0E922FF2486
:100E9000F901E45AFC4FC491D0E002C0D595C79542
:100EA0008A95E2F7C170DD270115110519F081EE71
:100EB0000E94EF1CE114F10419F086EE0E94EF1C71
:100EC0008D2D0E94EE1DEF2819F086EE0E94811DE7
:100ED000012B19F081EE0E94811DCD2B51F08CE287
:100EE000DF91CF911F910F91FF90EF90DF900C94C5
:100EF000EE1DDF91CF911F910F91FF90EF90DF904A
:100F00000895EF92FF920F931F93CF93DF93EC011D
:100F1000162F0AE08881882309F454C0813009F033
:100F20004EC08981813099F47E0122E0E20EF11CED
:100F30008A810E94EE1DE7012196812F815050F396
:100F4000EFE9FFE03197F1F700C00000F7CF823002
:100F500041F47E0182E0E80EF11C8A810E94EF1CC0
:100F6000EACF833041F47E01E2E0EE0EF11C8A818B
:100F70000E94811DE0CF843011F02196DDCF2A81BF
:100F8000229690E080E0AE014F5F5F4F2053330B1D
:100F90002A30310548F0019778F2EFE9FFE0319708
:100FA000F1F700C00000F7CF089FB001099F700D56
:100FB0001124C901860F971F2981EA01E4CF0E94FD
:100FC0001B07BACFDF91CF911F910F91FF90EF9048
:100FD000089560E00C94810708950C94EC0781E07B
:100FE00008950C94EF07CF93C82F0E94ED078C2F24
:100FF000CF910C94F107CF93DF930E9493180E9436
:10100000F508EC01811521E5920708F042C0811531
:1010100030E5930708F09DC0883E910530F5803E8D
:10102000910508F092C0883A910588F4853A9105B7
:1010300008F084C08130910509F487C0009709F455
:1010400084C0049708F081C0D0E0C0E07EC08F3B30
:101050009105D0F7C85AD0E0CC0FDD1FC35CDE4F3E
:101060000990D881C02DD46470C08115904250F48D
:10107000C11581E0D80708F068C0C03FD10520F352
:10108000D06563C0C11590E4D907F0F2DF70D06A73
:101090005CC0811525E5920700F5811534E59307BD
:1010A00008F08BC0811543E5940708F073C0C115A3
:1010B00082E5D80708F469C0CE018370992721E042
:1010C00030E002C0220F331F8A95E2F7C695C6951D
:1010D00080E2C89FE001112454C0C11599E5D907E9
:1010E000A8F4C11528E5D20708F06CC0C11536E593
:1010F000D30708F0A9CF8C2F0E948C09C82FD0E00D
:10110000DC2FCC27CC27DF71D0621FC0C1154AE588
:10111000D40708F45CC0CE0190568115904208F0C7
:1011200093CF8D2F8F710E948C0990E0982F882784
:1011300088279F719C012C2BE901E6CFC55AD0E08E
:10114000C559DE4FC881D0E0D064CE01DF91CF9188
:101150000895E4E096958795EA95E1F783702C2F42
:1011600026952695237040E2249F90011124382B68
:101170008C2F8370C1E0D0E002C0CC0FDD1F8A95B8
:10118000E2F7C22BD32BDC68E0CFDC2FCC27C16F7A
:10119000D06ADBCF8370992721E030E002C0220FB4
:1011A000331F8A95E2F7C695C69590E2C99FE00184
:1011B0001124C22BD32BDA68C8CFD82FCC27C46F09
:1011C000D06AC3CFDC2FCC27C06FD06ABECF8C2FA4
:1011D0008F700E948C0934E0D695C7953A95E1F757
:1011E000CF709C2FEC01D069B0CF82389105B1F15E
:1011F000B0F48133910509F475C048F48932910542
:1012000009F469C08A32910509F473C008958533E1
:10121000910509F459C08933910501F10895833E80
:101220009105A9F138F4803E9105F9F0823E9105CF
:1012300049F10895863E9105A9F1873E9105C9F1CE
:10124000843E910519F52091010321FF1FC0809173
:10125000000384FD14C087EE90E008952091000300
:101260002370A1F080EE90E008952091000320FD0E
:1012700047C03091010330FF09C024FF44C090E013
:1012800080E004C02091000322FDF7CF0895209153
:10129000000322FD3BC03091010330FDE3CF24FF6A
:1012A000F5CFEDCF2091000323FFF0CF24FDE7CF52
:1012B000D2CF2091000323FD2CC03091010331FFD8
:1012C000EECF84EE90E008952091000325FFDECF5D
:1012D00089E290E008952091000325FFD7CF85E3B0
:1012E00090E008952091000326FFD0CF8AE290E09D
:1012F00008952091000326FFC9CF81E390E008956F
:1013000089E390E0089583EE90E0089582EE90E006
:10131000089586EE90E008959091000392FF06C034
:10132000282F28712830F9F4877F846093FF06C046
:10133000282F28712831F1F4877E846120910103E0
:1013400020FF06C0382F38713830D9F4877F81608C
:1013500021FF06C0282F28712831D1F4877E8161B2
:1013600094FD877E0895282F24712430F9F68B7F11
:101370008860DCCF282F2471243101F78B7E8861AF
:10138000DDCF382F3171313019F78E7F8860E0CF93
:10139000282F2171213121F78E7E8861E1CF0C94B5
:1013A00054160E9467048FE39CE90197F1F700C08F
:1013B00000000E94670480E00E94DA0380FF04C0FE
:1013C0000E94CF090C941C2808950C94D1090E9406
:1013D0005026811102C00E94F5260E945B26809350
:1013E000F4020E94632690930103809300030E94FD
:1013F000E5090E945F26682F70E090E080E00E947F
:1014000090236091DF027091E0028091E10290915F
:10141000E2020C94CA230895FF920F931F93CF9377
:10142000DF93F82E092F162FD72FC42F222349F030
:1014300081E0809306020E94D12790930502809359
:101440000402809106028823A1F080910402909109
:1014500005020E94E927069760F0EF2DF02FA12FDB
:10146000BD2FCE0FDF2FD11DEC17FD0741F41092D9
:101470000602DF91CF911F910F91FF900895819106
:101480008D93F2CF80910D0280FF12C0609109010F
:1014900085E0689FB00111247595679575956795EE
:1014A00060387105A8F561157105A1F1862F0895C1
:1014B00081FF09C06091090185E0689FB001112496
:1014C00075956795EDCF6091090182FD0AC0809105
:1014D0000C028823D1F090910801609109018917CD
:1014E00028F085E0689FB0011124DACF869FB00113
:1014F000112485E0869F9001879F300D1124692F6C
:1015000070E0C9010E94CF2FCBCF65E070E0CECF55
:101510008FE7089581E0089580910D0280FF0CC04F
:101520006091050170E075956795759567956115F2
:10153000710549F1862F089581FF06C0609105016C
:1015400070E075956795F3CF6091050182FD0BC042
:1015500090910B029923A1F0609104018091050103
:10156000961738F0682F70E06038710500F38FE748
:101570000895899FC001112470E00E94CF2FF4CFFD
:1015800061E070E0D7CF81E00895803F31F40E94A0
:10159000420A8195809311020895813F19F40E94B7
:1015A000420AF8CF823F31F40E94420A819580932B
:1015B00010020895833F19F40E94420AF8CF893F30
:1015C00029F40E948C0A8093120208958A3F21F424
:1015D0000E948C0A8195F7CF8B3F31F40E948C0AD0
:1015E00081958093130208958C3F19F40E948C0A10
:1015F000F8CF9CE0980F953070F4845F990B21E050
:1016000030E001C0220F8A95EAF780910F02822B09
:1016100080930F0208958D3F31F480910D02816017
:1016200080930D0208958E3F21F480910D02826017
:10163000F7CF8F3FB9F780910D028460F1CF4091D1
:101640001002803F59F48091110287FF0DC0109263
:10165000110241110BC010920C0208C0813F81F4AD
:101660008091110218169CF3442381F0809112029C
:1016700090911302892B09F05AC010920B02089521
:10168000823F49F447FFF0CF10921002809111027F
:101690008111ECCFE0CF833F19F41416ACF3E4CF03
:1016A00090911202893F29F41916F4F61092120251
:1016B000DBCF8A3F19F497FFD7CFF8CF9091130271
:1016C0008B3F29F497FFD0CF10921302CDCF8C3FE0
:1016D00019F41916CCF3C8CF9CE0980F953090F40C
:1016E000845F990B21E030E0B90102C0660F771FDB
:1016F0008A95E2F7CB01809590910F028923809320
:101700000F02B2CF8D3F31F480910D028E7F809316
:101710000D02AACF8E3F21F480910D028D7FF7CF6D
:101720008F3F09F0A1CF80910D028B7FF0CF0895FC
:101730000E94D1279C019091100280911102982B58
:1017400021F030930A0220930902909112028091B5
:101750001302982B21F030930802209307028EE0A9
:1017600092E00C94851BEF92FF920F931F93CF93FF
:10177000DF9300D000D000D0CDB7DEB786E0EEE03A
:10178000F2E0DE01119601900D928A95E1F7E0906A
:101790001002F090110200911202109113021092A7
:1017A00010021092110210921202109213028E2D4A
:1017B0008F2991F08091090290910A020E94E927F5
:1017C000AC0190910C02992309F43FC080910A0169
:1017D0008417150608F447C0802F812B91F0809163
:1017E0000702909108020E94E927AC0190910B0238
:1017F000992309F477C0809106018417150608F42F
:101800007FC08091100290911102892B9091120259
:10181000892B90911302892B11F00E94980B86E07E
:10182000FE013196AEE0B2E001900D928A95E1F7AB
:1018300026960FB6F894DEBF0FBECDBFDF91CF91D5
:101840001F910F91FF90EF90089520910B018AE076
:10185000289F900111242417350708F0BDCF9F5F02
:1018600090930C0202C09F3FD1F7EE2059F00E94E6
:10187000420A9FEF1E140CF491E0899F802D1124E1
:1018800080931002FF2059F00E94420A9FEF1F141C
:101890000CF491E0899F802D1124809311023091E6
:1018A0001002332309F498CF20911102222309F466
:1018B00093CF45EB3403C0011124992359F0909341
:1018C000100245EB240390011124332339F03093A7
:1018D000110282CF81E080931002F3CF81E08093E8
:1018E00011027ACF209107018AE0289F90011124EC
:1018F0002417350708F085CF9F5F90930B0202C035
:101900009F3FD1F7002359F00E948C0A9FEF1016D9
:101910000CF491E0899F802D1124809312021123F1
:1019200059F00E948C0A9FEF11160CF491E0899FE8
:10193000802D11248093130230911202332309F475
:1019400060CF20911302222309F45BCF45EB3403CF
:10195000C0011124992359F09093120245EB2403FE
:1019600090011124332339F0309313024ACF81E0E0
:1019700080931202F3CF81E08093130242CF86E07E
:10198000EEE0F2E0DF011D928A95E9F710920C0279
:1019900010920B0210920D020895EF92FF920F9396
:1019A0001F93CF93DF93EB01E82FD11110C0442395
:1019B00021F0F0E0EA55FB4FE4916E2F7E2F8E2F41
:1019C000DF91CF911F910F91FF90EF9008950D2F10
:1019D00010E0282F30E0442329F02A553B4FF9012D
:1019E000249130E0F6E0CF9FC0011124EFEFF0E04A
:1019F000BF010E94BB2FAB018C2F90E0880F991F75
:101A0000A5E5A49FB001A59F700D1124861B970B1F
:101A1000982F990F980FBF01601B710B629FD00127
:101A2000639FB00D729FB00D11248B2F9D9FB0014D
:101A30001124672F7727EF01C61BD70BBE01629FCA
:101A4000E001639FD00D729FD00D11247F01E91A30
:101A5000F108E09EB001E19E700DF09E700D112422
:101A6000672F7727E61BF70BE29F8001E39F100D9E
:101A7000F29F100D1124E12F722F4230510599F081
:101A800048F44115510569F04130510581F0EB2FC3
:101A90008D2F07C04430510569F080F04630510564
:101AA000B1F76E2F8DCFE22F7B2F812FFACFE22F50
:101AB0007D2FF7CFEB2F822F712FF3CF7B2F822F2C
:101AC000ED2FEFCF41E00C94CD0C08950C94620DF6
:101AD000CF93DF93762FE901682F842F0E94660D44
:101AE000798368838A83DF91CF910895809102037F
:101AF000982F9E7F29F4817082608093020308955D
:101B00008635E8F381708465F8CF88E090E00C9426
:101B1000B430CF92DF92EF92FF926B017C010E9472
:101B2000760DB701A60188E090E0FF90EF90DF907E
:101B3000CF900C94D2306091020370910303809196
:101B40000403909105030C94890DE2E0F3E083E037
:101B5000808311828FEF82838383148260817181FD
:101B6000828193810C94890D8091020380FF02C0D1
:101B70008695089580E0089590910603933018F4B7
:101B80009F5F90930603882351F060910203709148
:101B9000030380910403909105030C94890D08952B
:101BA00081E00C94BC0D90910603992319F091509B
:101BB00090930603882351F0609102037091030310
:101BC00080910403909105030C94890D089581E0A0
:101BD0000C94D30D80910603089580930603662329
:101BE00051F060910203709103038091040390917E
:101BF00005030C94890D089560E00C94ED0D80911F
:101C000003030895809104030895809105030895C6
:101C100070E00C94F314609110018091020380FF36
:101C20000AC080910F0123E0829FC0011124895FC7
:101C30009C4F0C94080E809111019091120123E0A9
:101C4000829FF0011124E95FFC4F891750F7118240
:101C5000108212828F5F3396F8CF9091020390FF2B
:101C600014C0909111012091120133E0939FF00173
:101C70001124E95FFC4F921710F00C940B0E818336
:101C8000608342839F5F3396F6CF0895CF93DF93AF
:101C900000D00F92CDB7DEB79091020390FF0AC03B
:101CA0009E012F5F3F4F0E94680D4B8169818A81A1
:101CB0000E942D0E0F900F900F90DF91CF910895FD
:101CC000CF93DF93EC01EC81F0E0EF55FC4F4491B2
:101CD000E2E0F3E0628181810E94460E8C818F5F99
:101CE0008C83DF91CF910895CF93DF93EC01E2E0F5
:101CF000F3E0438162818C810E94460E8C818F5F6C
:101D00008C83DF91CF9108950F931F93CF93DF932F
:101D100000D00F92CDB7DEB78C01809114028111F3
:101D20000AC09E012F5F3F4F4FEF6FEF0E94680D7B
:101D30008A8180931402F8016481613069F0809196
:101D4000140240E0662361F040E0623011F44091FB
:101D5000140280E060E004C06091140240E080E082
:101D60000E942D0EF801848190E0019663E070E0FE
:101D70000E94CF2F84830F900F900F90DF91CF910F
:101D80001F910F910895AF92BF92CF92DF92EF9281
:101D9000FF920F931F93CF93DF9300D00F92CDB795
:101DA000DEB7182FF62E042FE22E9091020390FF3B
:101DB00029C0E92FE695AE2FB0E0A259BE4F8C9115
:101DC000809350029E7F923059F59E012F5F3F4FC6
:101DD000812F0E94680D4B8169818A810E942D0E9E
:101DE00010930303F092040300930503EE2051F0D7
:101DF00060910203709103038091040390910503A5
:101E00000E94890D0F900F900F90DF91CF911F913D
:101E10000F91FF90EF90DF90CF90BF90AF9008951B
:101E2000823019F400910503DBCF863019F410914C
:101E30000303D6CF8930D9F3893191F6E9518E2F3A
:101E40008170D82EE695F0E0EF55FB4FA590B49049
:101E5000C12CBB2460911301C61618F00E940B0E12
:101E6000BFCF2C2D30E0A29EC001A39E900DB29E4C
:101E7000900D112470E00E94BB2F812FD11013C050
:101E8000860F40911101420F532F511D9A01220FCD
:101E9000331F240F351F295F3C4F402F6F2D0E94A9
:101EA000680DC394D7CF861BECCFE2E0F3E09181BD
:101EB000282F4381628188E0890F0C94C30E81E052
:101EC0000C94550FE2E0F3E09181282F4381628169
:101ED00088EF890F0C94C30E81E00C94620FE2E04E
:101EE000F3E0628128E0620F08F46FEF282F43814E
:101EF00081810C94C30E81E00C946F0FE2E0F3E05B
:101F0000628128E0621B08F460E0282F4381818110
:101F10000C94C30E81E00C947E0FE2E0F3E0438169
:101F200028E0420F08F44FEF282F628181810C9442
:101F3000C30E81E00C948D0FE2E0F3E0438128E0D2
:101F4000421B08F440E0282F628181810C94C30E6B
:101F500081E00C949C0F20E00C94C30EEF92FF9252
:101F60001F93CF93DF93EC0110E0EE24EA94F12C61
:101F700060911301161770F00E940B0E9A818C81EC
:101F800090FF27C08F5F8C83DF91CF911F91FF90CF
:101F9000EF90089520911101422F410F5527551FB1
:101FA000CA019A01220F331F280F391F295F3C4FA6
:101FB00070E0C7010E94CF2F962F8C8140910503BE
:101FC00060910403199F800D11240E94680D1F5F0A
:101FD000CFCF8150D8CFAF92BF92CF92DF92EF9206
:101FE000FF920F931F93CF93DF93FC0182810FEF3A
:101FF00080FF01E010E04AE0A42E80911301181741
:10200000C8F00E940B0E80911602013009F055C0F5
:10201000811102C080911301815080931602DF91DB
:10202000CF911F910F91FF90EF90DF90CF90BF90D5
:10203000AF900895C0911101C12ED12CCC0DDD2D92
:10204000D11DCE01880F991FC80FD91FC95FDC4F62
:10205000198218821A8234E0E32EF12CB12C80917F
:1020600016028B0D8B301CF16A2D0E94AD2F892F2B
:10207000082E000C990BC816D90691F4809105031F
:102080008E9DA0018F9D500D112455954795559516
:1020900047959E0160910403809103030E94680D9F
:1020A000B00EF1E0EF1AF108D1F61F5FA6CF87FF5F
:1020B000DFCF90911301890FDBCF90E00196609103
:1020C000130170E00E94CF2FA8CF0F931F93CF93DF
:1020D000DF93809111019091120123E0829FF00122
:1020E0001124E95FFC4F891740F1C0E0D3E0609113
:1020F0001301C61740F10E940B0E20910D01809133
:102100001502820F8093150290910E01920F909309
:102110000E01191654F4082E000C990B409113016E
:102120004150550B841795071CF0219520930D0104
:10213000DF91CF911F910F91089511821082128229
:102140008F5F3396D0CF0C2F10E070E0C8010E9453
:10215000CF2F20911101820F482F50E020911502BE
:10216000022E000C330B02171307BCF020910E0156
:10217000022E000C330B201731077CF08D9F90014D
:102180001124295F3C4F4091050360910403809125
:1021900003030E94680DCF5FAACFFA01EE0FFF1F65
:1021A000E40FF51FE95FFC4F118210821282F3CF1A
:1021B0008F929F92AF92BF92CF92DF92EF92FF9257
:1021C0000F931F93CF93DF93EC014C81042F10E00A
:1021D0009801D8010E941A309B01AC010E94303056
:1021E0004B015C01E0E2F0E0E01BF10BA5E5B0E0A3
:1021F000AC019B010E9430306B017C019F01DF012B
:102200000E9412309B01AC010E943B309B01AC014B
:10221000280D391D4A1D5B1DC701B6010E94E32F21
:10222000F22E822F90E039E23F1560F143E0249FC7
:102230009001112435952795122F109500E085E522
:10224000E82EEF1880911301081758F10E940B0E29
:102250009C8181E0992319F0903219F48FEF8093DB
:102260000C0180910C01890F8C83DF91CF911F911C
:102270000F91FF90EF90DF90CF90BF90AF909F9025
:102280008F90089525E530E0B901681B790B9B011B
:10229000220F331F260F371F37FFCCCF2F5F3F4F43
:1022A000C9CF8E2D01FD8F2D20911101622F600F5E
:1022B0007727771F9B01220F331F260F371F295FB8
:1022C0003C4F412F609104030E94680D0F5FBACF0D
:1022D0000F931F93CF93DF93EC0110E000E09091F8
:1022E00013019017110609F06CF40E940B0E8C81FB
:1022F00090E00196817099278C83DF91CF911F9197
:102300000F91089520911101A801420F511D9A01CA
:10231000220F331F240F351F295F3C4F4C816091E2
:1023200004038091030396959017110651F04CF029
:10233000442349F0409105030E94680D0F5F1F4F31
:10234000CECF4423B9F340E0F7CF4F925F926F9224
:102350007F928F929F92AF92BF92CF92DF92EF9235
:10236000FF920F931F93CF93DF93FC016280448011
:1023700081E08483E1EAF3E07490E0E2F4E0E49148
:10238000812C75E0972EF2E0CF2EDD24D394AA2481
:10239000AA94B12C55245A94E7190E2F10E080917D
:1023A0001301881690F0DF91CF911F910F91FF904C
:1023B000EF90DF90CF90BF90AF909F908F907F90E5
:1023C0006F905F904F900C940B0EE82CF12C82E0F4
:1023D000861568F09E9CF0019F9CF00D1124E95E2B
:1023E000FD4F80910303808380910403818341101A
:1023F00023C09E9CF0019F9CF00D1124E95EFD4FCF
:102400001382128220911101C701820F911D9C013C
:10241000220F331F280F391F295F3C4F9E9CF0016C
:102420009F9CF00D1124E95EFD4F42816181808106
:102430000E94680D8394B3CF9E9CE0019F9CD00DB9
:102440001124C95EDD4F8B818823E9F081508B8395
:10245000859DC00111246C8170E00E94BB2FFB019F
:10246000FF27EF55FC4F8491E82FE719E59DC00148
:102470001124B8010E94BB2F80910503689FB00111
:1024800011247A83BFCF0E948F30209105032695B7
:1024900021582C9DA0012D9D500D1124452F55270D
:1024A000841795070CF0AECF82E0861588F40E9461
:1024B0008F30B5010E94CF2F88830E948F302091EA
:1024C00004032695622F70E00E94CF2F280F2983E6
:1024D0009E9CF0019F9CF00D1124E95EFD4F12823D
:1024E00080910503893C58F088EC9E9CF0019F9CEC
:1024F000F00D1124E95EFD4F8483838383CF843103
:10250000A0F784E1F2CFE2E0F3E080818E7F808368
:1025100060817181828193810E94890D10925102A4
:102520002FEF80E792E0215080409040E1F700C01B
:1025300000000C940B0EE2E0F3E080818E7F80833C
:10254000109251022FEF80E792E02150804090409E
:10255000E1F700C000000C940B0E60910203669539
:1025600070E04BE050E084E191E00E949F30892BC5
:1025700019F481E0809351020E94D12790934A027E
:102580008093490208959091020390FF35C09170A5
:10259000811128C0926090930203662351F06091EC
:1025A00002037091030380910403909105030E943C
:1025B000890D60910203669570E04BE050E084E184
:1025C00091E00E949F30892BA1F01092510281E08E
:1025D00080934C02409105036091040380910303B2
:1025E0000C94AB0F8B3210F09465D5CF880F982BDD
:1025F000D2CF0E94AD12EBCF0895682F90910203C5
:10260000969581E0890F8B3208F081E00C94C3121B
:1026100081E00C94FD12682F9091020396958FEF44
:10262000890F09F48AE20C94C31281E00C940B1315
:1026300061E00C94C312E2E0F3E08081816080836A
:1026400086950C9418138091020380FD0C948312DC
:102650000C941B1360E00C94C31280914F02811103
:102660002EC00E945026811104C00E94F5260E94AF
:10267000A50D0E94850D6093020370930303809360
:102680000403909305036E7F61F40E94A50D0E94E0
:10269000850D60930203709303038093040390936A
:1026A00005030E94760D109251028091020380FF73
:1026B00003C086950E942A1381E080934F020895FB
:1026C000E2E0F3E080818160808386950C942A1398
:1026D0000F931F93CF93DF9380915102882309F4C6
:1026E00096C080915002E0910203E695E81BE093CA
:1026F0004B02823091F5F0E0E356FC4FE491CE2F8F
:10270000D0E000E61EE080914C02882361F0109238
:102710004C020E94D12790934A0280934902109262
:102720004E0210924D020E94D127E0914902F09191
:102730004A028E1B9F0B8F3F9F4708F068C0EC0F2B
:10274000FD1FF0934A02E093490289E492E0F80108
:10275000DF91CF911F910F910994863049F4F0E0F9
:10276000E656FC4FE491CE2FD0E004E71EE0CBCF3D
:10277000893051F4E695F0E0E956FC4FE491CE2F14
:10278000D0E00EEA1FE0BFCF8F3051F4E695F0E0C5
:10279000EC56FC4FE491CE2FD0E00BEE1FE0B3CF10
:1027A000853149F4F0E0EF56FC4FE491CE2FD0E0B4
:1027B00005E610E1A8CFC8E2D0E008ED10E18831CD
:1027C00009F4A1CF833239F4EFE8F3E0C591D49155
:1027D00004E81EE098CFC4EFD1E008E611E18432AE
:1027E00009F491CFC0EDD7E005E61DE0853209F090
:1027F0008ACF8E2F63E00E94A12FE92FF0E0E457EB
:10280000FC4FE491CE2FD0E005EA11E17CCFDF91BF
:10281000CF911F910F910895FA01811101C0FB0121
:102820000994CF93DF93C82FD62F0E94B40D8C1735
:1028300040F00E94B40D8D1720F4DF91CF910C94DD
:1028400008138C2FDF91CF910C9418131F93CF9303
:10285000DF93EC01FB011281112309F4C2C00E9435
:1028600098258272CC3CFCE5DF0709F4A0C008F093
:1028700044C0C63CECE5DE0709F485C0F0F4C33C77
:102880009CE5D90709F475C048F4C23CDC4509F45D
:102890006CC0812FDF91CF911F910895C43C9CE5BE
:1028A000D90709F46BC04CE65FE06FE57FE0C53CFB
:1028B000DC4579F70E940C145AC0C93CFCE5DF07DF
:1028C00009F46BC068F4C73CECE5DE0709F460C0AE
:1028D0004BE75FE06AE87FE0C83CDC4559F3D9CFBD
:1028E000CA3C9CE5D90709F45DC047EE5DE060EDA8
:1028F0007DE0CB3CDC45F1F2CCCFC13DFCE5DF0710
:1029000009F464C098F4CE3C9CE5D90709F458C09A
:1029100008F452C0CF3CFCE5DF0709F454C0C03DC9
:10292000DC4509F0B6CF6EE089E01CC0C43D9CE5F3
:10293000D90709F451C058F4C23DFCE5DF0709F49A
:1029400048C0C33DDC4509F0A4CF88E136C0C53D91
:102950009CE5D90709F443C06AE285E2CD35DD453F
:1029600009F097CF0E94111402C00E94231310E0B7
:1029700090CF45E153E168E073E19CCF48E053E13B
:1029800065E173E197CF4FE55FE06CE67FE092CFC2
:102990004AE85FE06BE77FE08DCF48EA5FE069E9F6
:1029A0007FE088CF49E95FE068EA7FE083CF40EDD0
:1029B0005DE067EE7DE07ECF81E00E941813D7CF07
:1029C00065E082E0CFCF68E086E0CCCF64E18FE0C5
:1029D000C9CF67E185E1C6CF62E289E1C3CF83E277
:1029E000ECCF11E056CF539A4BB1477F5BB15860A3
:1029F000EFB7F8949B01220F331F260F371F280FC4
:102A0000391F2817390741F4EFBF8FE594E001978C
:102A1000F1F700C000000895DC016D91CD0178E070
:102A20005BB9000000C067FF4BB9660F000000C033
:102A300000C000C04BB900C07A9591F7E2CF0C946A
:102A40007005AF92BF92CF92DF92EF92FF920F93F9
:102A50001F93CF93DF93ABEAB1E029EA31E086E53B
:102A6000A82E82E0B82E6DEA71E041E050E00D91B1
:102A7000802F82958F7090E0FC01C1A10F707A01C8
:102A8000002E01C0EE0C0A94EAF7FE2DF095CF233C
:102A9000FC01C1A3C2A1CE29C2A3E90119919E01E3
:102AA000E12FE295EF70F0E0F1A01F706A01012EB6
:102AB00001C0CC0C0A94EAF7EC2CE094EF20E1A2E0
:102AC000F2A0FC28F2A2EC0188A190E002C095954A
:102AD00087950A95E2F78170E0A1F0E002C0F595D4
:102AE000E7951A95E2F790E0E0FD92E0892BF50179
:102AF00081935F016A177B0709F0B9CFDF91CF910E
:102B00001F910F91FF90EF90DF90CF90BF90AF900B
:102B100008956F927F928F929F92AF92BF92CF92C1
:102B2000DF92EF92FF920F931F93CF93DF9306E50F
:102B300012E08BEAC82E81E0D82E99EAE92E91E0C6
:102B4000F92E24E5822E22E0922EC2E5D2E0712CED
:102B5000612C34E0A32EB12CD801EC91EE0FEE0FD6
:102B6000ED938D01D6012D916D01A22FA295AF702D
:102B7000B0E090968C9190E02F7002C0959587956B
:102B80002A95E2F781709927D7014D917D01A42FF5
:102B9000A295AF70B0E090962C9130E04F7002C0DB
:102BA000359527954A95E2F7A9014170552720FFF1
:102BB00002C042E050E0842BE82BD8011197EC933F
:102BC000EF70F0E0E756FE4F8081F4019081890FAD
:102BD000808320E0843044F088818F5F888360E0C8
:102BE000872D0E941F1521E0D4018C918D3F44F464
:102BF00088818150888361E0872D0E941F1521E024
:102C0000F4018081082E000C990BB5010E94CF2F92
:102C1000D4018D934D01622A2196B1E07B1210C040
:102C2000862DDF91CF911F910F91FF90EF90DF9054
:102C3000CF90BF90AF909F908F907F906F900895AE
:102C40007724739489CF83E290E00E94AC30813284
:102C500089F484E290E00E94AC30883059F485E237
:102C600090E00E94AC3091E0823209F090E0892F30
:102C70008170089580E0FCCFCF93C82F6FEF811152
:102C800061E283E290E00E94C0306FEFC11168E022
:102C900084E290E00E94C0306FEFC11162E285E2F1
:102CA00090E0CF910C94C03080E00E943C160C94D0
:102CB0004A26089586E290E00E94AC30682F70E0CA
:102CC00090E080E0089586E290E00C94C0300E948D
:102CD00059160E94231681110CC060E070E0CB01F0
:102CE0000E9463160E940B180E94F71881E00C9452
:102CF0003C160895CF93FB01C281CC2309F19C01BE
:102D000022513F452031310520F582510E9407199B
:102D1000C0E08C2FCF91089581E00E94F22343E020
:102D200062E081E00E949406F3CF81E00E941324C8
:102D300043E062E081E00E949406EBCF82E0F6CFB0
:102D40008031FFE59F0789F381319F45B9F3C1E0E9
:102D5000E0CF8031EFE59E07F9F281319F45C9F65A
:102D600082E0DBCF2FEFFC0120830895CF93DF9328
:102D7000EC0188818138A9F028F4803871F0DF9166
:102D8000CF910895823881F08338C9F70E94FF0DF2
:102D900089830E94020E8A83F2CF0E94050E8983E6
:102DA000EECF0E94B40DFBCF0E94EA0DF8CFCF9377
:102DB000DF93EC0188818138E1F028F4803869F0F4
:102DC000DF91CF910895823811F18338C9F70E94BD
:102DD000050E482F6A81898108C0D9810E94020EA0
:102DE000C82F0E94FF0D4D2F6C2FDF91CF910C94B7
:102DF000AB0F89810E942A138981811104C0DF9160
:102E0000CF910C949B12DF91CF910C946013898128
:102E1000DF91CF910C94FC0DEF92FF920F931F93D3
:102E2000CF93DF93EC01062FDC01ED91CD01E15052
:102E3000E33108F0ADC0F0E0EB5EFE4C0C940530E1
:102E4000198289E08A83602FCE01DF91CF911F9193
:102E50000F91FF90EF900C94D0288981823069F017
:102E6000833071F08130D9F40E94DD270E940B304D
:102E70006A837B838C839D83E6CF0E945A16F6CFAC
:102E80007E01B2E0EB0EF11C10E0812F0E94DA030C
:102E9000F70181937F011F5F1A30B9F7D4CF602FFC
:102EA000CE010E94B216CFCF89818230C1F76A81EC
:102EB0007B818C819D810E940B300E946316C3CF61
:102EC0004B816A8189810E94DD179827892798277D
:102ED0009D838C83B8CF2C813D81322723273227D5
:102EE0004B816A8189810E94F617ADCF0E940B1831
:102EF000AACF0E94D716A7CF0E94B616A4CF0E94D1
:102F00009B0DA1CF0E94A01889839DCF0E94A2187B
:102F10009827892798279A83898395CF6B8170E0BA
:102F200089819A81AE014C5F5F4F98278927982746
:102F30000E94A51888CF6B8170E089819A81AE01CB
:102F40004C5F5F4F9827892798270E94CC187BCF2A
:102F50000E94F71878CF0E94CB17D6CF6B8170E014
:102F600089819A81AE014C5F5F4F98278927982706
:102F70000E94431868CF6B8170E089819A81AE010D
:102F80004C5F5F4F9827892798270E9469185BCF6D
:102F90008FEF888358CF84E0089550E0440F551F89
:102FA0009EE0699F400D511D11249CE8899F400DB2
:102FB000511D1124CA01879608950F931F93CF9333
:102FC000DF930E94CD178C010E94AC30C82FD0E057
:102FD000DC2FCC27C80101960E94AC309E01282B23
:102FE000C901DF91CF911F910F9108950F931F9306
:102FF000CF93DF93122F032F0E94CD17EC01602F88
:103000000E94C030612FCE010196DF91CF911F91B8
:103010000F910C94C030AF92BF92CF92DF92EF929B
:10302000FF921F93CF93DF938CEAC82E80E0D82EB7
:10303000D0E07601C0E014C0F50125913491412F14
:103040006C2F8D2F0E94F61782E0A80EB11C1F5F17
:10305000173091F78EE0E80EF11CCF5FCA3019F0FF
:10306000570110E0E9CFDF5F8CE8C80ED11CD430E7
:1030700001F7DF91CF911F91FF90EF90DF90CF90FC
:10308000BF90AF900895EF92FF920F931F93CF934D
:10309000DF93EC018A017C01E60EF71ECE018796D4
:1030A000CE15DF0539F4DF91CF911F910F91FF907D
:1030B000EF900895C03322E0D20740F40E94AC3074
:1030C000F80180830F5F1F4F2196E8CFF80110822F
:1030D000F9CFCF92DF92EF92FF920F931F93CF938E
:1030E000DF937C016A018C01060F171FEC01CE01F2
:1030F0008796C017D10749F4DF91CF911F910F91A7
:10310000FF90EF90DF90CF900895C03322E0D20778
:1031100040F4FE01EE19FF09EC0DFD1D60810E94D7
:10312000C0302196E4CF462F843038F47A3028F42A
:10313000673018F4672F0C94DD1790E080E0089555
:1031400080E1089589EA91E00895EF92FF920F934C
:103150001F93CF93DF93EC018A017C01E60EF71EEB
:10316000CE01895A9D4FCE15DF0539F4DF91CF91FD
:103170001F910F91FF90EF900895C93A21E0D20777
:1031800040F40E94AC30F80180830F5F1F4F2196FE
:10319000E7CFF8011082F9CFCF92DF92EF92FF9242
:1031A0000F931F93CF93DF937C016A018C01060F6D
:1031B000171FEC01CE01895A9D4FC017D10749F462
:1031C000DF91CF911F910F91FF90EF90DF90CF9003
:1031D0000895C93A21E0D20740F4FE01EE19FF0933
:1031E000EC0DFD1D60810E94C0302196E3CFCF938E
:1031F000DF93C7E5D2E060E0CE010E94C0302196A7
:10320000C11584E0D807B9F7DF91CF910895DF9217
:10321000EF92FF920F931F93CF93DF9300D000D0D4
:10322000CDB7DEB7F82E8FE08F1540F08FEF93E02B
:103230000E94AC3007E512E08823C1F00F900F9098
:103240000F900F90DF91CF911F910F91FF90EF9012
:10325000DF900895011584E0180781F3C8010E94EA
:10326000AC30811101C0FA940F5F1F4FF110F2CF03
:1032700019821A821B821C82DD24D39478018FEF7D
:10328000E81AF80AC8010E94AC3089831A828823A0
:10329000A9F29FEF980F933078F48A83D9820E5F5A
:1032A0001F4FC7010E94AC308B83882339F2CE01B7
:1032B00001960E94E907E2CF8701F9CF0F931F9390
:1032C000CF93DF93C42FD22FFC0182818823C9F0D2
:1032D00040935A020E94D12790935902809358023A
:1032E00080E28C0F883008F050C0C77081E001C0C8
:1032F000880FCA95EAF7DF91CF911F910F910C9437
:10330000F61D10915A02141335C080915802909105
:1033100059020E94E927883C910560F5C0E2CD0F73
:103320001D17B9F080E2810F883040F4177081E0FA
:1033300001C0880F1A95EAF70E94FD1DC83048F4B5
:1033400081E09D2F977001C0880F9A95EAF70E943F
:10335000F61D802F0E94EE1DC830B8F4D77081E0B2
:1033600001C0880FDA95EAF7DF91CF911F910F9195
:103370000C94FD1D80E28C0F883038F4C77081E01A
:1033800001C0880FCA95EAF7EFCFDF91CF911F9167
:103390000F9108950F939C01CB01233F4CE5340717
:1033A00059F1A8F4283DFCE53F0701F1293D4CE522
:1033B0003407D1F1273D3C4591F406E221EE41EE80
:1033C00067ED7CE50E945E1980E00F910895253F2E
:1033D000FCE53F07E9F0B0F0263F3C45F9F0FC0181
:1033E0008281882339F110925A02EFCF07E225EE4D
:1033F00045EE68ED7CE5E6CF06E221EE40EE63EFB8
:103400007CE5E0CF07E225EE44EE64EF7CE5DACF21
:1034100006E221EE42EE65EF7CE5D4CF07E225EE31
:1034200046EE66EF7CE5CECF08E221E045EE69EDA1
:103430007CE5C8CF81E0C9CFCF93DF93EC01FB01DE
:103440008281882309F419C1C230FCE5DF07C0F18D
:10345000C6319CE5D90730F09E012A5F3C452930F2
:10346000310570F50E946326909301038093000359
:10347000C031ECE5DE0709F4CFC008F05BC0C8300E
:103480008CE5D80709F4B6C088F5C430ECE5DE0752
:1034900009F4A8C0C0F4C2308CE5D80709F49CC078
:1034A000809100038260C330DC4509F498C08091AC
:1034B0000003909101030E9471260E94702080E019
:1034C000DF91CF910895809100038061C630ECE5D3
:1034D000DE0709F484C0809100038860C730DC45B2
:1034E00008F47DC080910003806279C0CC308CE507
:1034F000D80709F489C070F4809100038C60CA3049
:10350000ECE5DE0709F46BC008F478C08091000395
:103510008E7F65C0CE308CE5D80709F479C08091E4
:1035200000038B7FCF30DC4508F459C08091000345
:103530008F7E55C0CB3FECE5DE0709F457C030F570
:10354000C3318CE5D80709F46FC078F4C131ECE5DC
:10355000DE0709F465C0C231DC4509F0A8CF0E943E
:103560007020809100038F773AC0C5318CE5D80771
:1035700009F462C008F476C0809101038160CA3FFB
:10358000DC4509F094CF8093010391CFCF3FFCE558
:10359000DF0709F44DC088F4809101038D7FCD3F92
:1035A0009CE5D90781F3809101038E7FCE3FDC45F6
:1035B00050F3809101038360E6CFC130FDE5DF0762
:1035C00009F459C008F444C080E0C230DD4509F078
:1035D0006ECF0E94F7266BCF8091000381608093AD
:1035E000000365CF809100038460F9CF80910103CF
:1035F0008260C9CF809100038064F1CF0E94702067
:10360000809100038068EBCF809100038D7FE7CF2E
:1036100080910003877FE3CF809100038F7DDFCF10
:10362000809100038F7BDBCF80910003837FD7CF16
:10363000809101038C7FA7CF8091000382FB9927A3
:1036400090F921E0922790FB82F990FB83F9C7CF94
:1036500080910103982F909591708E7F892B90FB1C
:1036600081F991CF0E94702090910003892F97FBE0
:1036700087F98058B4CF81E0ACCF81E021CFCF93E0
:10368000DF93EB0186319C4511F50E9498259A81C4
:10369000992399F08A7A91E009F490E090935B0283
:1036A000811109C089E20E9452250E94DB2580E039
:1036B000DF91CF91089585E3F6CF80915B02811170
:1036C00004C089E20E945925F0CF85E3FBCF81E059
:1036D000EFCF90936102809360020895E0916002C1
:1036E000F0916102309721F00190F081E02D099472
:1036F00080E00895E0916002F0916102309721F03E
:103700000280F381E02D09940895E0916002F09128
:103710006102309739F022E0DC012C930480F581BE
:10372000E02D0994089520915E0230915F022817E0
:10373000390771F090935F0280935E02E09160021E
:10374000F0916102309721F00680F781E02D099415
:10375000089520915C0230915D022817390771F0BD
:1037600090935D0280935C02E0916002F0916102AF
:10377000309721F00084F185E02D099408950E948E
:10378000DD276093750270937602809377029093A1
:103790007802609371027093720280937302909327
:1037A000740208950E94DD2760937502709376027B
:1037B000809377029093780260936D0270936E020B
:1037C00080936F0290937002089585B7806885BFDB
:1037D00085B7806885BF0895089508950C94EC1B03
:1037E00008950C94F01B0E94E51B88E496E20E9469
:1037F00040280E94ED1B0C94EE1B81E008950C9470
:10380000FD1B089508950E94011C0C94021C0E9447
:10381000C8270E94E1030E9467160E942D130E9490
:1038200021150C94F11BAF92BF92CF92DF92EF92D1
:10383000FF920F931F93CF93DF93CDB7DEB72A97F5
:103840000FB6F894DEBF0FBECDBF0E946704811192
:103850000E94BF1B83E6A82E82E0B82E10E000E095
:10386000C02E802F0E94DA03E82EF501F1905F014F
:10387000F81609F455C08091F40281FD0E94E0031E
:103880008F2D8E25D12CFF24F394982F9F2109F49E
:1038900042C00E94FF1B882399F0DE82CF82EF2076
:1038A00081E009F480E088870E94D1278160782F29
:1038B0009A8789874E815F8168858A850E94B81CB6
:1038C000F801ED59FD4F8081F826F0820E946813BF
:1038D0000E94891581110E94D21B0E94B30B0E9485
:1038E0006E1B90916202891791F10E946E1B80936A
:1038F00062022A960FB6F894DEBF0FBECDBFDF91ED
:10390000CF911F910F91FF90EF90DF90CF90BF90DC
:10391000AF900C94F307D394FF0CF7E0DF12B5CF10
:103920000F5F1F4F0A30110509F09ACF8FEF89837F
:103930008A831B820E94D1278160782F9D838C838C
:1039400049815A816B818D810E94B81CBFCF2A9614
:103950000FB6F894DEBF0FBECDBFDF91CF911F91A0
:103960000F91FF90EF90DF90CF90BF90AF900895B0
:10397000DF92EF92FF920F931F93CF93DF93CDB718
:10398000DEB72B970FB6F894DEBF0FBECDBF7A8798
:103990008B87F42E052F162FE72ED82E61110E944B
:1039A000B8251E821D827E2DEC82DD824F2D502F88
:1039B000612F8D2D9E812B960FB6F894DEBF0FBE22
:1039C000CDBFDF91CF911F910F91FF90EF90DF90CE
:1039D0000C94E622FC01808191810C942425CF93E4
:1039E000C82F882309F48BC08238C1F40E946E1B53
:1039F00081FD85C089E30E9452250E94DB252FEFBF
:103A000081EE94E0215080409040E1F700C000003A
:103A100089E30E945925CF910C94DB258338A1F4CA
:103A20000E946E1B80FD6BC083E50E9452250E94A0
:103A3000DB252FEF81EE94E0215080409040E1F7AC
:103A400000C0000083E5E5CF8438A1F40E946E1B1E
:103A500082FD55C087E40E9452250E94DB252FEF8E
:103A600081EE94E0215080409040E1F700C00000DA
:103A700087E4CFCF8CEF8C0F813A90F46C2F80913C
:103A80001F01909120010E940E27882329F08C2F7E
:103A90000E9459250E94DB258C2F0E945225BBCF06
:103AA00080E28C0F883048F4C77081E001C0880F35
:103AB000CA95EAF70E949B25AECFEBE5EC0FE33009
:103AC00040F4F0E0E552FE4F808190E0CF910C94FD
:103AD000931BE8E5EC0FE73150F4F0E0EE0FFF1F29
:103AE000E355FE4F80819181CF910C94A91BC03F7B
:103AF00030F08C2F0E94C50ACF910C94980BCF9177
:103B00000895882309F452C0823871F40E946E1B14
:103B100081FF4CC089E30E9452250E94DB2589E386
:103B20000E9459250C94DB25833859F40E946E1BA2
:103B300080FF3CC083E50E9452250E94DB2583E57F
:103B4000EFCF843859F40E946E1B82FF2FC087E4A8
:103B50000E9452250E94DB2587E4E2CF9CEF980F5C
:103B6000913AF0F290E2980F983050F4877091E01B
:103B700001C0990F8A95EAF7892F0E94A125D2CF1B
:103B80009BE5980F933020F490E080E00C94931B19
:103B900098E5980F973120F490E080E00C94A91BF1
:103BA000803F20F00E941F0B0C94980B08951F93E8
:103BB000CF93DF93182FEB010E94EF1C209731F475
:103BC000812FDF91CF911F910C94811D8FE99FE090
:103BD0000197F1F700C000002197F0CF70E060E09E
:103BE000893311F460E570E00C94D71D882321F02F
:103BF0000E949B250C94DB250895882321F00E94C8
:103C0000A1250C94DB250895BF92CF92DF92EF920D
:103C1000FF920F931F93CF93DF936C01D62FC72F83
:103C2000FC011281058102950F700E947025E82E1B
:103C30008823A1F0E12E112389F08C2F807F80341E
:103C400029F080E28D0FE12C883040F082E00E9464
:103C50002C260E94702591E0E82EE926BC2EB29415
:103C60009FE0B922FBE0FB1598F1EB2DF0E0E85D59
:103C7000FE4C0C9405300C2F0F70C07F11F0029594
:103C8000007F1123A9F0002359F080E28D0F8830C6
:103C900010F0D11109C0802F0E949B250E94DB25C6
:103CA0008D2F0E94EF1C14C0802F0E94AB25F6CFF1
:103CB0008D2F0E94811D002359F080E28D0F8830E6
:103CC00010F0D1112CC0802F0E94A1250E94DB256D
:103CD0002B2D2850330B2430310520F40E946E1B0D
:103CE0000E94F307EE2009F48EC10E946C2580FD2E
:103CF0008AC1F60112820E9466250E94F223C60143
:103D00000E9424200E946625DF91CF911F910F9180
:103D1000FF90EF90DF90CF90BF900C941324802FF2
:103D20000E94B125D3CF2C2F2F70F22EC07FC0322E
:103D300019F0F29480EFF822DD2369F0D13049F1D7
:103D4000112391F1002351F1F601858180FFA8CF65
:103D50008F70858323C0112381F0011106C00E945A
:103D6000BE258F290E94F61DB3CF0130C1F70E94F6
:103D7000BE258F290E94C425ABCF011106C00E9429
:103D8000D1258F2D0E94FD1DA3CF013009F4A0CFB6
:103D9000F6CF112329F0063008F09ACF8F2DE2CF0D
:103DA000053008F095CFEDCF002359F3D93349F40E
:103DB000FFEF27EE33E0F15020403040E1F700C044
:103DC00000008D2F0E94811D83CF8C2F86958695B4
:103DD000837069F0813009F07BCF8D2F9C2F937019
:103DE000111102C090E080E00E94A91B71CF8D2FBD
:103DF0009C2F9370111102C090E080E00E94931BF1
:103E000067CF8D2F112329F00E94C50A0E94980BBD
:103E10005FCF0E941F0BFACF8C2F837009F041C037
:103E2000111156CF4D2F429546954770440F440FC0
:103E30000D2F0F7010E030E020E0042E04C0000FC2
:103E4000111F221F331F0A94D2F760E070E0CB01EC
:103E5000D4FF0FC06FE070E080E090E004C0660F18
:103E6000771F881F991F4A95D2F7609570958095A6
:103E70009095C695C695C370602B712B822B932BA2
:103E8000C23049F058F4C13019F00E94A42320CF69
:103E90000E9492231DCF0E94B6231ACF0E94902326
:103EA00017CF8695112311F08C2F8170882309F488
:103EB0000FCF4D2F429546954770440F440F0D2F5D
:103EC0000F7010E030E020E0042E04C0000F111F3E
:103ED000221F331F0A94D2F760E070E0CB01D4FFB9
:103EE0000FC06FE070E080E090E004C0660F771FC5
:103EF000881F991F4A95D2F7609570958095909587
:103F0000C695C695C370602B712B822B932BC23044
:103F100049F058F4C13019F00E946924D9CE0E94AA
:103F20005724D6CE0E947B24D3CE0E94CC23D0CE61
:103F3000CF70112329F08C2F0E94F2238D2F12CFE6
:103F40008D2F0E94FD1D8C2F0E941324C1CED23FC5
:103F500089F160F4D03FC9F0D13F29F1112309F470
:103F600042C001119DCE8C2F8F7121C0D33F39F1FA
:103F7000D43FA1F7112369F1CF718C2F0E94F22356
:103F800063E08C2F0E941126A3CE112341F005304F
:103F900008F09ECE8C2F8F710E94362499CE063069
:103FA00008F096CEF7CF8C2F8F71112369F20E9403
:103FB000F2238ECE8C2F8F711123C9F3C5CF11231D
:103FC00029F08C2F8F710E94DD2382CE0E94D8238E
:103FD0007FCE81E00E942C26023008F479CE82E068
:103FE0000E942C2675CE002359F0D93309F0E9CE72
:103FF0008FEF97EEE3E081509040E040E1F7DFCEB5
:104000008C2F8F71A1CFDF91CF911F910F91FF90D6
:10401000EF90DF90CF90BF9008950F931F93CF93B1
:10402000DF93EC01688179818A810E942E258C01C1
:104030000E948D240E948F23B801CE01DF91CF9181
:104040001F910F910C94041ECF93DF93EC018B8191
:104050009C81892B29F08881998189238F3F59F48C
:10406000DF91CF910895CE010E940D20CE01DF9106
:10407000CF910C943506CE010E94BC068111F3CF7E
:104080000E947025882361F38A81882349F382E0A6
:10409000DF91CF910C942C26882321F00E94AB2530
:1040A0000C94DB250895882321F00E94B1250C94FF
:1040B000DB25089590E080E00E94931B90E080E073
:1040C0000E94A91B0E94B8250E94BB250E94DB25E7
:1040D0000E94BF0C0C94980B0E9460250C945A20EF
:1040E0000E94A8250C946C20E92FE295EF70E25015
:1040F000EE3070F4F0E0EC5CFE4C0C940530803F48
:1041000019F020F4883E20F481E00895843FE1F323
:1041100080E00895883EC0F3813FD1F7F5CF93FB4F
:10412000882780F908950E9424250C947420CF9349
:10413000DF9300D000D00F92CDB7DEB70F900F9075
:104140000F900F900F90DF91CF910895CF93DF9351
:1041500000D000D000D0CDB7DEB726960FB6F894C9
:10416000DEBF0FBECDBFDF91CF9108951F93CF93D8
:10417000DF93C0917A0216E080917B028C1304C019
:10418000DF91CF911F910895D0E01C9FF0011D9FFA
:10419000F00D1124E458FD4F4081518162817381FB
:1041A000848195810E94A6202196C770E5CF409119
:1041B000AC025091AD026091AE027091AF0280915D
:1041C000B0029091B1020C94A6201F93CF93DF937D
:1041D0008091B102807FA9F48091AE02882389F09A
:1041E00080917A02C0917B026091AC027091AD0225
:1041F000A091AF02B091B002D62FD72316E0C8131A
:1042000004C0DF91CF911F91089590E0109711F0B5
:10421000DF3F19F401968770F2CF189F9001199F24
:10422000300D1124F901E458FD4F41814713F2CFBD
:1042300040814613EFCF42814111ECCF438154813D
:104240004A1B5B0B483C510528F78091B1028F70E7
:1042500080618093B102F901EF57FD4F80818F702B
:10426000806180838CEA92E00E942420DF91CF91CC
:104270001F910C94B620AF92BF92CF92DF92EF9233
:10428000FF920F931F93CF93DF93CDB7DEB7619764
:104290000FB6F894DEBF0FBECDBF8C0185E0F801EC
:1042A000DE011D9601900D928A95E1F7F80140819B
:1042B0005181E2808CEAC82E82E0D82E6091AF0254
:1042C0007091B0026115710509F461C19091AC0261
:1042D0002091AD02892F82238F3F09F458C1A3801A
:1042E000B480F090AE02F501E61BF70BFF2009F455
:1042F000FCC08091B102382F307FE83CF10508F016
:10430000B2C0311179C0FE2C251323C0941321C0F3
:10431000E1101FC08F7080618093B1020E94D7208E
:10432000C6010E9424208091B102F80185838F2D5F
:1043300061960FB6F894DEBF0FBECDBFDF91CF916F
:104340001F910F91FF90EF90DF90CF90BF90AF90B3
:104350000895AB2829F0842F85238F3F09F033C1BE
:1043600080E0F82FF170DF2E80FF3CC080917A0250
:1043700020917B0236E0821315C04D875E878D85C4
:104380009E850E942425292F22952F702230F0F03F
:10439000243018F59F70F1F0F8019581907FD1F4E9
:1043A000D12C1EC090E0389FF001399FF00D1124F0
:1043B000E458FD4F6181651306C06081641303C03A
:1043C00062816E110FC001968770D5CF9F7011F07A
:1043D000882331F3805E883018F3C8010E942420BE
:1043E000FD2CA5CFEE2009F4A2CF8091B10281600F
:1043F0008093B102F12C9BCF251306C0941304C007
:10440000F801EE2009F48DC04D875E878D859E856D
:104410000E949320882319F1EE2009F18091B102C6
:10442000803270F02091AC023091AD0238872F833A
:104430001986BB86AA868C87CE0107960E94242007
:1044400086E0F801ACEAB2E001900D928A95E1F7BE
:104450000E94E5200E94D720FF24F39468CFC80172
:104460000E942420F9CF311113C07A2DB98AA88A6D
:104470006E2D89890E9497208CEA92E00E94242068
:1044800086E0F60111928A95E9F70E94D720B2CF13
:1044900025130FC094130DC0E1100BC0F8018583E4
:1044A000C8010E94242086E0F60111928A95E9F75E
:1044B0003ECF4D875E878D859E850E949320882301
:1044C00071F2EE2061F28091B102803208F4B8CF2F
:1044D0002091AC023091AD023A8329831B82BD82C8
:1044E000AC828E83CE010196A9CFE83CF10508F09D
:1044F00041C0FE2CEE2009F4B2CF25132AC094133C
:1045000028C08091B10280FD1BC0982F907FC1F020
:10451000F8018583903F31F0982F907F905F8F70E6
:10452000892B8583C8010E94242086E0F801ACEA2B
:10453000B2E001900D928A95E1F70E94D720F7CE64
:1045400086E0F801ACEAB2E001900D928A95E1F7BD
:10455000EECE4D875E878D859E850E9493208111CA
:104560006FCF8091B10281608093B102C8010E9437
:104570002420DDCE7A2DB98AA88A6E2D89890E94E1
:10458000972086E0F60111928A95E9F7D6CFEE20C2
:1045900009F465CF4D875E878D859E850E949320A7
:1045A000F82E882309F45BCF86E0F801ACEAB2E08C
:1045B00001900D928A95E1F78CEA92E00E94EA1C44
:1045C0000E94E520BACF81E08E25CBCE1F93CF93FA
:1045D000DF93CDB7DEB72C970FB6F894DEBF0FBED2
:1045E000CDBF4F83588769877A878B879C87CE0199
:1045F00007960E943B21882369F08A859B85892B39
:1046000039F04F815885842F85238F3F09F071C081
:1046100016E05FC086E0FE013796DE01119601903C
:104620000D928A95E1F78A859B85892B89F38F8185
:10463000988589238F3F61F320917B0230E0C90187
:1046400001968770992740917A024817190671F4EC
:104650000E94702010927B0210927A0286E0ECEAAF
:10466000F2E0DF011D928A95E9F7D2CF96E0929FA2
:10467000D001939FB00D1124A458BD4FFE01319677
:1046800001900D929A95E1F780937B020E94B620EB
:10469000BFCF819FC001112484589D4F0E943B21B0
:1046A0008823E9F0E0917A021E9FF0011124E4587A
:1046B000FD4F4081518162817381848195810E9487
:1046C000A62080917A0290E00196877099278093C6
:1046D0007A0280917A0290917B028913DACF2C962C
:1046E0000FB6F894DEBF0FBECDBFDF91CF911F9103
:1046F000089569857A858B859C850E94A62088CF40
:1047000008950C9480230E9481236093E3027093A8
:10471000E4028093E5029093E6020C945A200895F7
:104720000C9483230F931F930091E3021091E402F2
:104730002091E5023091E602602B712B822B932BA6
:104740001F910F910C9483230F931F930091E30209
:104750001091E4022091E5023091E602602371237A
:10476000822393231F910F910C9483230F931F9304
:104770000091E3021091E4022091E5023091E602FB
:1047800060277127822793271F910F910C94832311
:104790000C9480230C94C8230E94CA236093DF02E8
:1047A0007093E0028093E1029093E2020C945A200D
:1047B00060E070E0CB010C94CC230F931F9341E099
:1047C00050E060E070E08A019B0104C0000F111FFF
:1047D000221F331F8A95D2F7C901B8011F910F918B
:1047E0000C94CC230F931F9341E050E060E070E005
:1047F00004C0440F551F661F771F8A95D2F780911A
:10480000DF029091E002A091E102B091E2028A0100
:104810009B01082B192B2A2B3B2BC901B8011F9197
:104820000F910C94CC230F931F9341E050E060E074
:1048300070E004C0440F551F661F771F8A95D2F79A
:10484000CB01BA0160957095809590950091DF023B
:104850001091E0022091E1023091E2026023712385
:10486000822393231F910F910C94CC230F931F93BA
:1048700041E050E060E070E004C0440F551F661F47
:10488000771F8A95D2F78091DF029091E002A09184
:10489000E102B091E2028A019B01082719272A2729
:1048A0003B27C901B8011F910F910C94CC230F93A2
:1048B0001F930091DF021091E0022091E1023091FC
:1048C000E202602B712B822B932B1F910F910C9482
:1048D000CC230F931F930091DF021091E0022091EF
:1048E000E1023091E20260237123822393231F911E
:1048F0000F910C94CC230F931F930091DF02109122
:10490000E0022091E1023091E202602771278227C4
:1049100093271F910F910C94CC23089527E0929F29
:10492000800D1124982F977041E001C0440F9A9593
:10493000EAF786958695869595E0899FF001112482
:10494000EE54FD4F90E080E070E05191DF0111974F
:104950009B01082E02C0369527950A94E2F7217034
:1049600021952527242325272C9301968530910511
:1049700061F7089527E0929F800D1124982F97707A
:1049800086958695869525E0829FF0011124EE5448
:10499000FD4F50E040E080E0219130E0092E02C060
:1049A000369527950A94E2F721703327042E01C02B
:1049B000220F0A94EAF7822B4F5F5F4F4530510573
:1049C00059F70895BF92CF92DF92EF92FF920F9323
:1049D0001F93CF93DF938C01C090DF02D090E00251
:1049E000E090E102F090E2028091E3029091E40213
:1049F000A091E502B091E602C82AD92AEA2AFB2A48
:104A0000CFE1D0E0BC2ED701C6010C2E04C0B69574
:104A1000A795979587950A94D2F780FD0EC02197A8
:104A200088F7B12C8B2DDF91CF911F910F91FF90C3
:104A3000EF90DF90CF90BF900895B8018C2F0E9427
:104A4000FB07019761F3EECFCF93DF93EC010E9458
:104A5000E224BE01DF91CF910C94FB071F93CF930B
:104A6000DF93EB0190917902992331F0CB01DF9133
:104A7000CF911F910C942425882379F0CB010E94BB
:104A8000E224182F682FCE010E948E24BE01812FB0
:104A9000DF91CF911F910C94FB07CB010E94BA24A8
:104AA000182FF4CF682F80911F01909120010C9452
:104AB0004427682F80911F01909120010C94462774
:104AC00080911F01909120010C9448278091E7026A
:104AD00085958595859508958091E702877008955D
:104AE0009091E702977081E009F480E00895909139
:104AF000010392FB222720F9281751F080FB92F93D
:104B00009093010380910003909101030C9471260E
:104B100008958091010382FB882780F991E089271D
:104B20000C94772581E00C94772580E00C94772510
:104B30008091F30208959091F302892B8093F30200
:104B4000089580959091F30298239093F30208952D
:104B50001092F30208959091F202892B8093F20251
:104B6000089580959091F20298239093F20208950F
:104B70001092F20208951092F10208958091E802D5
:104B8000089508950C94C1259091010392FD08C0E9
:104B90009091E802981721F08093E8020C94C225C6
:104BA00008958091E802882329F01092E80280E0BD
:104BB0000C94C2250895E0911F01F091200180918D
:104BC000F3028083E0911F01F09120018081909198
:104BD000F202892B8083E0911F01F09120018081F6
:104BE0009091F102892B80839091E802992381F0C2
:104BF000E0911F01F09120018081892B80838091B9
:104C00001F01909120010E94FC2681110E94D12554
:104C100080911F01909120010C947A1B08950C94AF
:104C20000E269091010392FD10C098E0899F90019B
:104C30001124622B6093E7020E94F2238091E70225
:104C40008595859585950C940F260C94F2231092EA
:104C5000E70280E00C940F269091E702809589236B
:104C60008093E702282F277039F4282F082E000C94
:104C7000330B9217130621F49091010392FF07C0A2
:104C80008595859585950E9413240C942726089573
:104C900080E008956FEF7FEF90E080E00C94DE30CD
:104CA00090E080E00E94BA3021E08A3E9E4F09F0F9
:104CB00020E0822F089582E090E00C94AC3083E0F5
:104CC00090E00C94AC30CF9384E090E00E94AC3044
:104CD000C82F82E290E00E94AC30982F8C2FCF91A9
:104CE0000895CF93C92F682F84E090E00E94C030D0
:104CF0006C2F82E290E0CF910C94C030AB01BC01EC
:104D00008FE090E00C94D230AB01BC0183E190E0E5
:104D10000C94D23060E070E0CB010C94842660E00B
:104D200070E0CB010E947E260C948A266AEE7EEF0C
:104D300090E080E00E94DE3060E082E090E00E943F
:104D4000C03060E083E090E00E94C0301092E30247
:104D50001092E4021092E5021092E60260E084E014
:104D600090E00E94C03060E082E290E00E94C0309B
:104D700060E085E090E00E94C03060E086E090E076
:104D80000E94C0306FEF87E090E00E94C03040E0AA
:104D900050E0BA0188E090E00E94D23060E08DE0FF
:104DA00090E00E94C03040E050E0BA0188E190E01D
:104DB0000E94D23060E087E190E00E94C03040E085
:104DC00050E0BA018CE190E00E94D23070E060E0E7
:104DD00080E290E00E94DE3040E050E0BA0188E1DD
:104DE00090E00E94D2300C948F260C949626682F67
:104DF0008EE090E00C94C0309C012E5F3F4FAC01E0
:104E0000485F5F4F80E02417350709F40895F901E2
:104E100091919F019923B9F38F5FF5CF662349F0F4
:104E2000FC01329608962191261729F0E817F90718
:104E3000D1F780E0089581E008959C01FC0132964D
:104E40009FEF80E04191461751F09F3F19F44111C7
:104E500001C0982F8F5F8630A9F79F3F09F408950E
:104E6000290F311D97FD3A95F90162830895FC01E0
:104E7000329608962191261303C0DF0111971C92E8
:104E8000E817F907B9F708950C941D270C943727F4
:104E9000029626E0FC0111922A95E9F708950895FB
:104EA00008950C94502780912D03843049F10E947D
:104EB000512780E00E94F3071092F50288E190E00C
:104EC00020E40FB6F894A895809360000FBE20935D
:104ED000600083B7817F846083BF83B7816083BFB5
:104EE0007894889583B78E7F83BF0FB6F894A89582
:104EF00080916000886180936000109260000FBE16
:104F000008950895CF930E944F270E9467040E943E
:104F10008127C0E08C2F0E94DA03811105C0CF5F8A
:104F2000CA30C1F7CF91089581E0FCCF08950C9469
:104F300096270E9470200E946E1B0E94F3070C941B
:104F400097271F921FB61F9211248F939F93AF93A1
:104F5000BF938091F502811113C080912503909138
:104F60002603A0912703B09128034196A11DB11DEE
:104F70008093250390932603A0932703B0932803DF
:104F8000BF91AF919F918F911F901FBE1F90189559
:104F900082E084BD93E095BD9AEF97BD80936E004B
:104FA00008952FB7F8948091250390912603A0913E
:104FB0002703B09128032FBF08952FB7F89460916D
:104FC00025037091260380912703909128032FBF1A
:104FD00008959C014FB7F894809125039091260382
:104FE000A0912703B09128034FBF821B930B089514
:104FF00078941F921FB61F9211248F939F93AF93A3
:10500000BF938091250390912603A0912703B0912F
:1050100028030196A11DB11D8093250390932603BB
:10502000A0932703B0932803BF91AF919F918F91D5
:105030001F901FBE1F90189581E08093E00080E2D2
:105040008093D8001092C9008FE19EE40197F1F798
:1050500000C0000087E090EBDC0180933603909362
:105060003703A0933803B093390388E19CE00FB66F
:10507000F894A895809360000FBE90936000FFCFD6
:105080009093EF018093EE0108958091FE020895C0
:10509000CF93DF9300D00F92CDB7DEB790912D0361
:1050A000943011F589837B836A839093E9008FEFB5
:1050B0009091E800815095FD06C095ED9A95F1F725
:1050C00000008111F5CF8091E80085FF0DC050E010
:1050D00040E063E070E0CE0101960E94C12A809119
:1050E000E8008E778093E8000F900F900F90DF918B
:1050F000CF910895BC0184E00C944828BC0183E062
:105100000C9448289C0184E08093E9009FEF8091F3
:10511000E800915085FD06C085ED8A95F1F7000005
:105120009111F5CF8091E80085FF0CC050E040E080
:1051300066E070E0C9010E94C12A8091E8008E7784
:105140008093E8000895CF93DF93EC0181E0809392
:10515000E9008FEF9091E800815095FD06C095ED34
:105160009A95F1F700008111F5CF8091E80085FF55
:1051700014C050E040E068E070E0CE010E94C12A17
:105180008091E8008E778093E80088E0FE01A6EF2A
:10519000B2E001900D928A95E1F7DF91CF910895E9
:1051A000CF93FC01603221F580912D03843001F50D
:1051B000C091E900CF702091EC00922F917020FDFA
:1051C00090E8C92B82E08093E9008091E80080FF9D
:1051D0000CC050E040E060E270E0CF010E94C12AC4
:1051E0008091E8008E778093E800CF70C093E9004B
:1051F000CF91089580912C03811109C00E94A02CA9
:105200000E94FD2C8091E20084608093E20008956A
:1052100010922C03089508950895089542E061ECDA
:1052200081E00E941C2C42E261EC84E00E941C2C74
:1052300042E261EC82E00E941C2C42E260EC83E0DE
:105240000C941C2C80912F03833009F461C030F43E
:105250008130D1F1823009F49DC008958A3009F47B
:1052600089C08B3009F46FC0893009F050C080913B
:105270002E03813209F04BC08091320390913303A9
:10528000009719F0029709F042C08091E800877FEB
:105290008093E8008091E80082FF35C09091F30090
:1052A0008091F200029729F48091F1008B7F813088
:1052B00021F48091F1008093FE028091E8008B77C9
:1052C0008093E8000C94502C80912E03813AF9F4DD
:1052D0008091E800877F8093E8008091320390916D
:1052E0003303892B61F468E086EF92E070E00E945E
:1052F0005F2B8091E8008B778093E800089560E051
:1053000090E080E0F3CF80912D038111C3CF089509
:1053100080912E03813AD9F7809132039091330323
:10532000892BA9F78091E800877F8093E80080911E
:10533000E80080FFFCCF80912B018093F1008091E9
:10534000E8008E77BDCF80912E03813201F78091E6
:10535000320390913303892BD1F68091E800877F47
:105360008093E8000E94502C8091300380932B01A1
:105370000C94702080912E03813249F68091E800D0
:10538000877F8093E8000E94502C809131038093A6
:10539000FF02089580912E03813A09F0B8CF8091E1
:1053A000E800877F8093E8008091E80080FFFCCFD1
:1053B0008091FF02C2CFCDB7DEB7A0970FB6F894A9
:1053C000DEBF0FBECDBF84B7877F84BF0FB6F89412
:1053D000A8958091600088618093600010926000C1
:1053E0000FBE80E890E00FB6F89480936100909330
:1053F00061000FBE0E94F31B0E94A02C0E94FD2C96
:105400008091E20084608093E20078940E94862F6D
:105410000E94071C81E291E00E94691B13E08091C9
:105420002D038530B9F00E94131C80912D03843028
:10543000C1F00E94031CF3CF0E94532780912B03DD
:10544000882341F00E948227882321F00E94AB2A02
:105450000E94702080912D03853071F30E9499275E
:10546000E2CF1093E9008091E80082FFE2CF8091C3
:10547000E80090E085FF09C050E040E060E270E0A5
:10548000CE0101960E94102B91E08091E8008B776D
:105490008093E800992369F260E2CE0101960E94B0
:1054A0000C17C7CF0C94542A292F332723303105EA
:1054B00021F168F42130310509F443C0223031056F
:1054C00009F444C090E080E030E020E026C02132C2
:1054D000310551F122323105A9F76330710590F79A
:1054E000FB01EE0FFF1FEF51FE4F20813181625211
:1054F0007E4FFB01808190E010C09927813091059B
:1055000081F0009729F00297E9F6E6EAF5E002C09B
:10551000E8ECF5E0849190E09F01FA01318320836B
:105520000895E8EBF5E0F6CF6330710558F6660FA5
:10553000771FFB01E951FE4F2081318189E090E026
:10554000ECCF82E190E027E236E0E7CF8BE590E018
:105550002CEC35E0E2CF80E189BD82E189BD09B460
:1055600000FEFDCF8091D8008F7D8093D800809180
:10557000E00082608093E0008091E00081FDFCCF3C
:105580000895AF92BF92CF92DF92FF920F931F9335
:10559000CF93DF936C01EB018A010E946F2CF82EF0
:1055A000811123C00115110539F0F8018081918125
:1055B000C81BD90BC80ED91EB12CA12C2097A9F05D
:1055C0008091E80085FD22C08091E8008E7780936D
:1055D000E80001151105A1F0F80180819181A80E64
:1055E000B91EB182A08285E0F82E8F2DDF91CF9178
:1055F0001F910F91FF90DF90CF90BF90AF900895D3
:105600000E946F2C8823D1F2F82EEFCFF601819102
:105610006F018093F1002197FFEFAF1ABF0ACECF41
:10562000AF92BF92CF92DF92FF920F931F93CF93CF
:10563000DF936C01EB018A010E946F2CF82E81111F
:1056400023C00115110539F0F80180819181C81B33
:10565000D90BC80ED91EB12CA12C2097A9F080918E
:10566000E80085FD22C08091E8008B778093E800F8
:1056700001151105A1F0F80180819181A80EB91ED4
:10568000B182A08285E0F82E8F2DDF91CF911F91FE
:105690000F91FF90DF90CF90BF90AF9008950E9440
:1056A0006F2C8823D1F2F82EEFCF8091F100F60114
:1056B00081936F012197FFEFAF1ABF0ACECFFC0194
:1056C000809134039091350386179707A0F06115F8
:1056D000710529F49091E8009E779093E80090E09E
:1056E0006115710551F4911108C08091E80082FFA5
:1056F00034C080E00895BC01F2CF80912D0388234F
:10570000C1F18530C1F18091E80083FD30C0809106
:10571000E80082FDEACF8091E80080FFE1CF809130
:10572000F3002091F200382F6115710519F028302F
:10573000310558F091E02830310509F090E02091D2
:10574000E8002E772093E800CBCF81918093F10081
:10575000615071092F5F3F4FE7CF80912D03882360
:1057600041F0853041F08091E80083FFBECF81E0B9
:10577000089582E0089583E00895FC018091340348
:105780009091350386179707A0F06115710529F4EC
:105790008091E8008E778093E80090E061157105B4
:1057A00051F4911108C08091E80082FF35C080E07B
:1057B0000895BC01F2CF80912D038823C9F1853073
:1057C000C9F18091E80083FD31C08091E80082FD3D
:1057D000EACF8091E80080FFE1CF8091F300209133
:1057E000F200382F6115710519F02830310558F095
:1057F00091E02830310509F090E08091E8008E7743
:105800008093E800CBCF84918093F1003196615072
:1058100071092F5F3F4FE6CF80912D03882341F020
:10582000853041F08091E80083FFBDCF81E008958D
:1058300082E0089583E00895982F973028F08F70C4
:105840008093E90081E008959093E900242F762F5A
:1058500050E0981731F07091EC002091ED005091DC
:10586000F00021FD02C09F5FE8CF3091EB003E7F4A
:105870003093EB003091ED003D7F3093ED0030919F
:10588000EB0031603093EB007093EC002093ED005F
:105890005093F0002091EE0027FDE5CF80E00895C1
:1058A00080912E0387FF13C08091E80082FF06C01D
:1058B0008091E8008B778093E80004C080912D03ED
:1058C0008111F2CF089580912D038823D9F380911F
:1058D000E80080FFF8CF8091E8008E77ECCF209130
:1058E000E4003091E50095E6A9012091EC00822FBB
:1058F000817020FF06C08091E80080FF06C080E034
:1059000008952091E80022FD1AC080912D0388237C
:1059100089F0853089F08091EB0085FD0FC02091E2
:10592000E4003091E50042175307F9F29150E1F697
:1059300084E0089582E0089583E0089581E0089569
:105940000E940E2D0E94162DE0EEF0E08081816015
:105950008083E8EDF0E080818F77808319BCA7ED2C
:10596000B0E08C918E7F8C9380818F7E80831092AB
:105970002C0308950F931F93CF93DF930E940E2D56
:105980000E94162DC8EDD0E088818F7788838881AA
:105990008068888388818F7D888319BC10922D034D
:1059A0001092290310922B0310922A0300EE10E0AC
:1059B000F80180818B7F808388818160888342E0C9
:1059C00060E080E00E941C2CE1EEF0E080818E7FA0
:1059D0008083E2EEF0E08081816080838081886056
:1059E0008083F80180818E7F8083888180618883B5
:1059F000DF91CF911F910F910895E8EDF0E0808144
:105A00008F7E8083E7EDF0E080818160808384E099
:105A100082BF81E080932C030C94BA2CE8EDF0E077
:105A200080818E7F80831092E20008951092DA00C8
:105A30001092E10008951F920F920FB60F92112459
:105A40002F933F934F935F936F937F938F939F9386
:105A5000AF93BF93EF93FF938091E10082FF0BC060
:105A60008091E20082FF07C08091E1008B7F8093EC
:105A7000E1000E94852F8091DA0080FF19C080919B
:105A8000D80080FF15C08091DA008E7F8093DA0005
:105A90008091D90080FF96C080E189BD82E189BDF7
:105AA00009B400FEFDCF81E080932D030E94FA2807
:105AB0008091E10080FF19C08091E20080FF15C055
:105AC0008091E2008E7F8093E2008091E20080610D
:105AD0008093E2008091D80080628093D80019BC46
