:100000000C9412030C9459030C9459030C94590347
:100010000C9459030C9459030C9459030C945903F0
:100020000C9459030C9459030C9448270C941C28E5
:100030000C947F220C9459030C9459030C9459038B
:100040000C9459030C9459030C9459030C945903C0
:100050000C9459030C94D6220C9459030C94590314
:100060000C9459030C9459030C9459030C945903A0
:100070000C9459030C9459030C9459030C94590390
:100080000C9459030C9459030C9459030C94590380
:100090000C9459030C9459030C9459030C94590370
:1000A0000C9459030C9459030C94590335001E0009
:1000B0001F0020002100220023002B0014001A0042
:1000C0000800150017001C00E000040016000700DF
:1000D00009000A000B00E1001D001B0006001900CA
:1000E000050011008A41E300E20000002C0000003E
:1000F000000024002500260027002A001601A80081
:1001000018000C001200130031002D002E000D000D
:100110000E000F00000028002F00300010003800F3
:100120000000E500E4003300340000000000E600B9
:10013000E7008B423600370029003A003B003C00C4
:100140003D003E003F0001000000000000000000F4
:10015000000000000100000000000000000000009E
:10016000000001000000000000000000000000008E
:10017000010001000100000001000000000040003B
:100180004100420043004C0001000100000000005B
:10019000000000000000000000000000000000005F
:1001A000000001001B0100000000000000005200E0
:1001B00001000601190100000000500051004F002D
:1001C0001D011C01000000000000000000000000F4
:1001D000000046004B0052004E00000000000000EE
:1001E0000100500051004F0000000000000001001D
:1001F00000000000000000000000000003510100AA
:1002000001000000010000000000000000000000EC
:1002100000000000010001000000000000000000DC
:1002200000000000000000000000000000000100CD
:1002300000000000000000000000010001000000BC
:1002400000000000000001000100010000000000AB
:100250000000C35CCE5CCF5CD05CD15CD25C0100A2
:10026000000000000000000000000000010000008D
:10027000000000000000000000000100000000007D
:10028000000000000000000001000100010000006B
:10029000010000000000D35CD45CD55CD65C00009B
:1002A0000100010000000000000000000000C45C2C
:1002B000C55C00000000000000000100C65CC75CD7
:1002C00000000000000001000100C85CC95C0000E3
:1002D0000000010001000100CA5CCB5C1E0F05009C
:1002E000047F3F1F643214643214783C1E1E140ACB
:1002F000052223252628292A2C2D2F303233353666
:10030000383A3B3D3E4042434547494A4C4E5051A6
:10031000535557595A5C5E6062646668696B6D6FCD
:1003200071737577797B7D7F81838587898A8C8ED0
:1003300090929496989A9C9E9FA1A3A5A7A8AAACD8
:10034000AEAFB1B3B4B6B8B9BBBCBEBFC1C2C3C512
:10035000C6C7C9CACBCCCDCED0D1D2D2D3D4D5D6B4
:10036000D7D7D8D9D9DADADBDBDBDCDCDCDCDCDDE7
:10037000DDDDDDDCDCDCDCDCDBDBDBDADAD9D9D8CB
:10038000D7D7D6D5D4D3D2D2D1D0CECDCCCBCAC963
:10039000C7C6C5C3C2C1BFBEBCBBB9B8B6B4B3B192
:1003A000AFAEACAAA8A7A5A3A19F9E9C9A9896942D
:1003B00092908E8C8A89878583817F7D7B79777502
:1003C00073716F6D6B6968666462605E5C5A5957E1
:1003D000555351504E4C4A4947454342403E3D3BA0
:1003E0003A3836353332302F2D2C2A29282625232A
:1003F00022FFAA7F55400001010101010101010115
:1004000002020202020202020203030303030303C5
:100410000304040404040404050505050506060692
:100420000606070707070708080808090909090A4F
:100430000A0A0B0B0B0C0C0C0D0D0D0E0E0E0F0FF4
:100440000F10101111111212131314141515161682
:100450001717181819191A1A1B1B1C1D1D1E1E1FF1
:100460002020212222232424252626272829292A40
:100470002B2C2D2D2E2F3031323233343536373868
:10048000393A3B3C3D3E3F40414243444546474864
:10049000494A4C4D4E4F50515354555658595A5B3A
:1004A0005D5E5F616264656668696B6C6D6F7072DA
:1004B000737577787A7B7D7E8082838587888A8C46
:1004C0008E8F91939596989A9C9EA0A2A3A5A7A97A
:1004D000ABADAFB1B3B5B7BABCBEC0C2C4C6C9CB71
:1004E000CDCFD1D4D6D8DBDDDFE2E4E7E9EBEEF027
:1004F000F3F5F8FAFDFF10037400790078006F003F
:1005000073003600330000000E036D0061007200BE
:1005100062007900330000000403090409023B0073
:10052000020100A0FA0904000001030101000921F1
:10053000110100012240000705810308000A090497
:1005400001000103000000092111010001227B00CC
:100550000705820320000A1201100100000008EDC7
:10056000FE000001000102000105010902A1018550
:10057000020901A1000509190129081500250195A5
:1005800008750181020501093009311581257F9522
:10059000027508810609381581257F950175088146
:1005A00006050C0A38021581257F9501750881061C
:1005B000C0C005010980A101850319012AB70015F2
:1005C0000126B700950175108100C0050C0901A135
:1005D00001850419012AA002150126A002950175C2
:1005E000108100C005010906A101050719E029E7EE
:1005F0001500250195087501810295017508810195
:100600000507190029FF150026FF009506750881CA
:1006100000050819012905950575019102950175D7
:10062000039101C011241FBECFEFDAE0DEBFCDBFC2
:1006300004B603FE27C08091260390912703A09162
:100640002803B09129038730904BA740B04BD1F4D9
:100650001092260310922703109228031092290368
:1006600014BE84B7877F84BF0FB6F894A895809195
:100670006000886180936000109260000FBEE0E02F
:10068000F8E3099511E0A0E0B1E0EEEBF6E502C079
:1006900005900D92AE3DB107D9F723E0AEEDB1E084
:1006A00001C01D92A632B207E1F70E9484240C9487
:1006B000392B0C94000008950C945B0308950C945E
:1006C0005E03E82FF0E0E052FE4F80810895089528
:1006D000FF920F931F93CF93DF93A3E3B1E0ED015C
:1006E00061E070E08991E82FE295EF70F0E041A1C0
:1006F0008F709B0101C0220F8A95EAF7922F909587
:10070000942391A382A1822B82A381E0CD33D807C9
:1007100049F7CCE2D1E023E331E0AE0161E070E0E3
:10072000FA018191AF01E82FE295EF70F0E0F1A0BE
:100730008F708B0101C0000F8A95EAF7902F90957A
:100740009F2191A382A1802B82A32417350741F713
:1007500061E070E08991E82FE295EF70F0E011A17F
:100760008F70AB0101C0440F8A95EAF7942F9095E2
:10077000912391A382A1842B82A32C173D0751F7CB
:1007800061E070E08D91E82FE295EF70F0E041A11B
:100790008F709B0101C0220F8A95EAF7922F9095E6
:1007A000942391A382A1822B82A3F1E0AD33BF07F2
:1007B00049F7EAEEF1E0A0EEB1E084EF91E01192AA
:1007C0001D928E179F07D9F78AE00E946808DF9173
:1007D000CF911F910F91FF900C94C7052F923F92DC
:1007E0005F926F927F928F929F92AF92BF92CF92C1
:1007F000DF92EF92FF920F931F93CF93DF93FAEE66
:100800002F2EF1E03F2EAFEE8A2EA1E09A2EB3E319
:10081000EB2EB1E0FB2EC0E0AA24A394B12CD101B1
:100820007C90F10111921F01D7018D917D01E82F7C
:10083000E295EF70F0E091A18F70B50101C0660FF5
:100840008A95EAF7892F862B81A382A1D62FD0958E
:100850008D2382A3B0EABA95F1F72CE231E0690169
:1008600090E080E0A10141505109D6015D906D01F9
:10087000052D02950F7010E0D80190960C91DA01C9
:100880006C9010E0B52DBF7002C015950795BA9514
:10089000E2F710E000FD06C01A2D082E01C0110F6E
:1008A0000A94EAF71629DA011C930196873091051C
:1008B000E1F681A1D823D1A382A1682B62A381E0B4
:1008C0009C91971101C080E0C82B8214930409F019
:1008D000A6CF50E040E061E070E0E8E36E2EE1E09A
:1008E0007E2EF90181919F01E82FE295EF70F0E0F3
:1008F000D1A18F708B0102C0000F111F8A95E2F702
:10090000C8019D2F982B91A392A18095892382A342
:1009100010EA1A95F1F78B01042E01C0000F0A941A
:10092000EAF7802E0095EFEEF1E093E3E92E91E0F7
:10093000F92ED0E06F019080D7011D917D01A12E8D
:10094000A2948FE0A822B12CD50190968C9190E0D2
:100950001F7002C0959587951A95E2F780FD44C0F7
:10096000882D892980833196D6018C919812D1E007
:100970006E147F04F9F6F90131978081E82FE29532
:10098000EF70F0E0F1A08F708B0101C0000F8A952D
:10099000EAF7902F90959F2191A382A1802B82A3AB
:1009A000CD2B4F5F5F4F4730510509F09ACF2C2F69
:1009B0004AE060EE71E08AEE91E00E9469080E94D0
:1009C000CB058C2FDF91CF911F910F91FF90EF906E
:1009D000DF90CF90BF90AF909F908F907F906F905F
:1009E0005F903F902F900895802F8921BBCF811178
:1009F0000AC08CE191E0611102C08DE191E00E949A
:100A00006D0581E008958130E1F789EA611101C047
:100A10008AEA0E94CC18F5CFCF93DF939C013A95D8
:100A200021153F4168F5EC01CC27D170DC01AA27E4
:100A3000B270AC01442754709C012227387094FF97
:100A400011C080E1CD2B09F480E0AB2B09F080626E
:100A5000452B09F08064232B09F08068FB01DF91AE
:100A6000CF91099481E0CD2B09F480E0AB2B09F004
:100A70008260452B09F08460232B81F38860EECFE0
:100A8000DF91CF910895CF93DF93EC01805E9109C0
:100A9000089720F06AE27BE1209711F464ED78E199
:100AA000CE010E940C058C2FDF91CF910C94CD17B5
:100AB000CF93DF93EC010E945F18CE01805E910915
:100AC000089720F061E37BE1209711F46BED78E16A
:100AD000CE01DF91CF910C940C05CF93DF93EC0105
:100AE0000E944305CE01DF91CF910C94580581E01F
:100AF000089581E008950C94790508950C947D057E
:100B00001F93CF93DF9300D000D00F92CDB7DEB705
:100B100049835A836B833091690289819A813111AB
:100B20001DC06623B9F02223A9F00E94C01F182F10
:100B3000682F89819A810E946C1F69817A81812F37
:100B40000F900F900F900F900F90DF91CF911F910A
:100B50000C9444060E94981F182FEFCF0E94C01FCC
:100B600069817A81EDCFFC01262F4081518162811C
:100B7000738184810C948005CF93DF93EC0160E056
:100B80000E94B305BE01DF91CF910C947E050E94B7
:100B900044080C945C030C945F0308950E944E1B60
:100BA0000E94CD052FEF84E39CE0215080409040CF
:100BB000E1F700C000000C94FA220F931F93CF932B
:100BC000DF938C0161E00E94B305EC01B8010E9443
:100BD0007B058823D9F1B801CE010E94AA1488238D
:100BE000A9F1B801CE010E94FC14882379F1B80163
:100BF000CE010E941F16882349F1B801CE010E9440
:100C00004112882319F1F8018281882361F0CB35E4
:100C1000FDE5DF0721F170F4C115ECE5DE07A1F079
:100C2000CF3DDC45C9F0C801DF91CF911F910F91F5
:100C30000C947705CC358DE5D807A1F0CD35DD4591
:100C400091F70E946720EFCF0E94CE0580E0DF91F0
:100C5000CF911F910F9108950E94D321F7CF0E9449
:100C60007020E1CF0E947320DECF08950C943506EA
:100C700081E008950C943806CF93C82F0E94360661
:100C80008C2FCF910C943A06972F70E027E0929F1B
:100C9000600D711D1124FB0196E4899FE00DF11D8B
:100CA0001124EE0FFF1FE455FF4F85919491089595
:100CB000CF93DF930E9444060E945207EC018115F6
:100CC00021E5920708F042C0811530E5930708F04E
:100CD0009DC0883E910530F5803E910508F092C098
:100CE000883A910588F4853A910508F084C08130EE
:100CF000910509F487C0009709F484C0049708F0AF
:100D000081C0D0E0C0E07EC08F3B9105D0F7C85ACB
:100D1000D0E0CC0FDD1FC35CDE4F0990D881C02D21
:100D2000D46470C08115904250F4C11581E0D80799
:100D300008F068C0CD3ED10520F3D06563C0C11571
:100D400090E4D907F0F2DF70D06A5CC0811525E528
:100D5000920700F5811534E5930708F08BC08115E3
:100D600043E5940708F073C0C11582E5D80708F47D
:100D700069C0CE018370992721E030E002C0220FC4
:100D8000331F8A95E2F7C695C69580E2C89FE001B9
:100D9000112454C0C11599E5D907A8F4C11528E557
:100DA000D20708F06CC0C11536E5D30708F0A9CF0B
:100DB0008C2F0E94E907C82FD0E0DC2FCC27CC274E
:100DC000DF71D0621FC0C1154AE5D40708F45CC0CA
:100DD000CE0190568115904208F093CF8D2F8F71E0
:100DE0000E94E90790E0982F882788279F719C012F
:100DF0002C2BE901E6CFC55AD0E0C559DE4FC8819A
:100E0000D0E0D064CE01DF91CF910895E4E09695D3
:100E10008795EA95E1F783702C2F26952695237008
:100E200040E2249F90011124382B8C2F8370C1E065
:100E3000D0E002C0CC0FDD1F8A95E2F7C22BD32B86
:100E4000DC68E0CFDC2FCC27C16FD06ADBCF8370AA
:100E5000992721E030E002C0220F331F8A95E2F784
:100E6000C695C69590E2C99FE0011124C22BD32BF1
:100E7000DA68C8CFD82FCC27C46FD06AC3CFDC2F95
:100E8000CC27C06FD06ABECF8C2F8F700E94E9072D
:100E900034E0D695C7953A95E1F7CF709C2FEC01D9
:100EA000D069B0CF82389105B1F1B0F481339105AA
:100EB00009F475C048F48932910509F469C08A3291
:100EC000910509F473C008958533910509F459C05B
:100ED0008933910501F10895833E9105A9F138F414
:100EE000803E9105F9F0823E910549F10895863ED4
:100EF0009105A9F1873E9105C9F1843E910519F547
:100F00002091F10221FF1FC08091F00284FD14C0E6
:100F100087EE90E008952091F0022370A1F080EE1A
:100F200090E008952091F00220FD47C03091F10239
:100F300030FF09C024FF44C090E080E004C020914D
:100F4000F00222FDF7CF08952091F00222FD3BC070
:100F50003091F10230FDE3CF24FFF5CFEDCF2091AA
:100F6000F00223FFF0CF24FDE7CFD2CF2091F00293
:100F700023FD2CC03091F10231FFEECF84EE90E0E2
:100F800008952091F00225FFDECF89E290E00895D8
:100F90002091F00225FFD7CF85E390E008952091BE
:100FA000F00226FFD0CF8AE290E008952091F0026F
:100FB00026FFC9CF81E390E0089589E390E008958A
:100FC00083EE90E0089582EE90E0089586EE90E042
:100FD00008959091F00292FF06C0282F28712830C2
:100FE000F9F4877F846093FF06C0282F2871283189
:100FF000F1F4877E84612091F10220FF06C0382F32
:1010000038713830D9F4877F816021FF06C0282FDE
:1010100028712831D1F4877E816194FD877E0895FF
:10102000282F24712430F9F68B7F8860DCCF282F9D
:101030002471243101F78B7E8861DDCF382F317127
:10104000313019F78E7F8860E0CF282F2171213150
:1010500021F78E7E8861E1CF0C9428210E94EE0357
:101060008FE39CE90197F1F700C000000E94EE03B6
:1010700080E00E94610380FF04C00E942C080C9451
:10108000FA2208950C942E080E942E21811102C08C
:101090000E94D3210E9439218093E4020E944121C1
:1010A0009093F1028093F0020E9442080E943D2139
:1010B000682F70E090E080E00E946E1E6091CF0289
:1010C0007091D0028091D1029091D2020C94A81E0E
:1010D0000895FF920F931F93CF93DF93F82E092F5C
:1010E000162FD72FC42F222349F081E08093F601D9
:1010F0000E94AF229093F5018093F4018091F60154
:101100008823A1F08091F4019091F5010E94C722FB
:10111000069760F0EF2DF02FA12FBD2FCE0FDF2F00
:10112000D11DEC17FD0741F41092F601DF91CF912C
:101130001F910F91FF90089581918D93F2CF80912F
:10114000FD0180FF12C06091090185E0689FB00138
:101150001124759567957595679560387105A8F5A3
:1011600061157105A1F1862F089581FF09C0609175
:10117000090185E0689FB001112475956795EDCF51
:101180006091090182FD0AC08091FC018823D1F0A1
:101190009091080160910901891728F085E0689F06
:1011A000B0011124DACF869FB001112485E0869F1B
:1011B0009001879F300D1124692F70E0C9010E94B2
:1011C000FC29CBCF65E070E0CECF8FE7089581E0BA
:1011D00008958091FD0180FF0CC06091050170E0D1
:1011E00075956795759567956115710549F1862F18
:1011F000089581FF06C06091050170E075956795BF
:10120000F3CF6091050182FD0BC09091FB01992302
:10121000A1F06091040180910501961738F0682FC4
:1012200070E06038710500F38FE70895899FC00171
:10123000112470E00E94FC29F4CF61E070E0D7CF68
:1012400081E008958D3E31F40E949F08819580933E
:10125000010208958E3E19F40E949F08F8CF8F3E38
:1012600031F40E949F088195809300020895803F89
:1012700019F40E949F08F8CF893F29F40E94E908D9
:101280008093020208958A3F21F40E94E908819523
:10129000F7CF8B3F31F40E94E908819580930302D8
:1012A00008958C3F19F40E94E908F8CF9FE0980F49
:1012B000983070F4815F990B21E030E001C0220F7B
:1012C0008A95EAF78091FF01822B8093FF010895B0
:1012D0008D3F31F48091FD0181608093FD0108957F
:1012E0008E3F21F48091FD018260F7CF8F3FB9F7E7
:1012F0008091FD018460F1CF409100028D3E59F450
:101300008091010287FF0DC01092010241110BC0B4
:101310001092FC0108C08E3E81F4809101021816E3
:101320009CF3442381F08091020290910302892B67
:1013300009F05AC01092FB0108958F3E49F447FF0F
:10134000F0CF10920002809101028111ECCFE0CF2A
:10135000803F19F41416ACF3E4CF90910202893F58
:1013600029F41916F4F610920202DBCF8A3F19F421
:1013700097FFD7CFF8CF909103028B3F29F497FFC7
:10138000D0CF10920302CDCF8C3F19F41916CCF3B5
:10139000C8CF9FE0980F983090F4815F990B21E0BF
:1013A00030E0B90102C0660F771F8A95E2F7CB01E2
:1013B00080959091FF0189238093FF01B2CF8D3FEB
:1013C00031F48091FD018E7F8093FD01AACF8E3F85
:1013D00021F48091FD018D7FF7CF8F3F09F0A1CFE0
:1013E0008091FD018B7FF0CF08950E94AF229C0178
:1013F0009091000280910102982B21F03093FA0124
:101400002093F9019091020280910302982B21F020
:101410003093F8012093F7018EEF91E00C9465165C
:10142000EF92FF920F931F93CF93DF9300D000D0E2
:1014300000D0CDB7DEB786E0EEEFF1E0DE01119629
:1014400001900D928A95E1F7E0900002F090010280
:101450000091020210910302109200021092010208
:1014600010920202109203028E2D8F2991F080912A
:10147000F9019091FA010E94C722AC019091FC0100
:10148000992309F43FC080910A018417150608F4D6
:1014900047C0802F812B91F08091F7019091F80146
:1014A0000E94C722AC019091FB01992309F477C0F7
:1014B000809106018417150608F47FC08091000210
:1014C00090910102892B90910202892B9091030245
:1014D000892B11F00E94F50986E0FE013196AEEFEE
:1014E000B1E001900D928A95E1F726960FB6F89437
:1014F000DEBF0FBECDBFDF91CF911F910F91FF9047
:10150000EF90089520910B018AE0289F900111240B
:101510002417350708F0BDCF9F5F9093FC0102C0F0
:101520009F3FD1F7EE2059F00E949F089FEF1E14B5
:101530000CF491E0899F802D112480930002FF20FC
:1015400059F00E949F089FEF1F140CF491E0899FAF
:10155000802D11248093010230910002332309F47D
:1015600098CF20910102222309F493CF45EB340355
:10157000C0011124992359F09093000245EB2403F4
:1015800090011124332339F03093010282CF81E09E
:1015900080930002F3CF81E0809301027ACF209103
:1015A00007018AE0289F900111242417350708F0CD
:1015B00085CF9F5F9093FB0102C09F3FD1F700232F
:1015C00059F00E94E9089FEF10160CF491E0899FF2
:1015D000802D112480930202112359F00E94E90802
:1015E0009FEF11160CF491E0899F802D11248093B8
:1015F000030230910202332309F460CF20910302E9
:10160000222309F45BCF45EB3403C0011124992355
:1016100059F09093020245EB2403900111243323E7
:1016200039F0309303024ACF81E080930202F3CF76
:1016300081E08093030242CF86E0EEEFF1E0DF012C
:101640001D928A95E9F71092FC011092FB0110920D
:10165000FD010895EF92FF920F931F93CF93DF93B5
:10166000EB01E82FD11110C0442321F0F0E0EA5043
:10167000FC4FE4916E2F7E2F8E2FDF91CF911F9123
:101680000F91FF90EF9008950D2F10E0282F30E07C
:10169000442329F02A503C4FF901249130E0F6E030
:1016A000CF9FC0011124EFEFF0E0BF010E94E829B5
:1016B000AB018C2F90E0880F991FA5E5A49FB00186
:1016C000A59F700D1124861B970B982F990F980FCB
:1016D000BF01601B710B629FD001639FB00D729FB1
:1016E000B00D11248B2F9D9FB0011124672F7727F8
:1016F000EF01C61BD70BBE01629FE001639FD00DB7
:10170000729FD00D11247F01E91AF108E09EB0010B
:10171000E19E700DF09E700D1124672F7727E61B58
:10172000F70BE29F8001E39F100DF29F100D112433
:10173000E12F722F4230510599F048F441155105BF
:1017400069F04130510581F0EB2F8D2F07C04430F7
:10175000510569F080F046305105B1F76E2F8DCFFD
:10176000E22F7B2F812FFACFE22F7D2FF7CFEB2FA8
:10177000822F712FF3CF7B2F822FED2FEFCF41E000
:101780000C942A0B08950C94BF0BCF93DF93762F04
:10179000E901682F842F0E94C30B798368838A83B1
:1017A000DF91CF9108958091F202982F9E7F29F4C6
:1017B000817082608093F20208958635E8F381702B
:1017C0008465F8CF88E090E00C94DA2ACF92DF921B
:1017D000EF92FF926B017C010E94D30BB701A6012F
:1017E00088E090E0FF90EF90DF90CF900C94F82A83
:1017F000E2EFF2E083E0808311828FEF82838383C4
:10180000148260817181828193810C94E60B8091B6
:10181000F20280FF02C08695089580E008959091BD
:10182000F602933018F49F5F9093F602882351F0EC
:101830006091F2027091F3028091F4029091F502AE
:101840000C94E60B089581E00C940F0C9091F60235
:10185000992319F091509093F602882351F06091EA
:10186000F2027091F3028091F4029091F5020C94CF
:10187000E60B089581E00C94260C70E00C940E1396
:10188000609110018091F20280FF0AC080910F01E7
:1018900023E0829FC001112489509D4F0C943D0C80
:1018A000809111019091120123E0829FF001112497
:1018B000E950FD4F891750F71182108212828F5F15
:1018C0003396F8CF9091F20290FF14C090911101DD
:1018D0002091120133E0939FF0011124E950FD4F54
:1018E000921710F00C94400C8183608342839F5FB9
:1018F0003396F6CF0895CF93DF9300D00F92CDB7F4
:10190000DEB79091F20290FF0AC09E012F5F3F4F19
:101910000E94C50B4B8169818A810E94620C0F90E5
:101920000F900F90DF91CF910895CF93DF93EC014B
:10193000EC81F0E0EF50FD4F4491E2EFF2E0628184
:1019400081810E947B0C8C818F5F8C83DF91CF9192
:101950000895CF93DF93EC01E2EFF2E043816281DF
:101960008C810E947B0C8C818F5F8C83DF91CF9167
:1019700008950F931F93CF93DF9300D00F92CDB7AD
:10198000DEB78C018091040281110AC09E012F5F95
:101990003F4F4FEF6FEF0E94C50B8A818093040287
:1019A000F8016481613069F08091040240E06623AF
:1019B00061F040E0623011F44091040280E060E0A8
:1019C00004C06091040240E080E00E94620CF801D3
:1019D000848190E0019663E070E00E94FC2984839A
:1019E0000F900F900F90DF91CF911F910F9108955D
:1019F000AF92BF92CF92DF92EF92FF920F931F931D
:101A0000CF93DF9300D00F92CDB7DEB7182FF62E0D
:101A1000042FE22E9091F20290FF29C0E92FE69563
:101A2000AE2FB0E0A259BE4F8C91809340029E7FB2
:101A3000923059F59E012F5F3F4F812F0E94C50BB9
:101A40004B8169818A810E94620C1093F302F092AB
:101A5000F4020093F502EE2051F06091F2027091D1
:101A6000F3028091F4029091F5020E94E60B0F9030
:101A70000F900F90DF91CF911F910F91FF90EF90FA
:101A8000DF90CF90BF90AF900895823019F400910D
:101A9000F502DBCF863019F41091F302D6CF8930EE
:101AA000D9F3893191F6E9518E2F8170D82EE695C0
:101AB000F0E0EF50FC4FA590B490C12CBB24609196
:101AC0001301C61618F00E94400CBFCF2C2D30E039
:101AD000A29EC001A39E900DB29E900D112470E0B5
:101AE0000E94E829812FD11013C0860F4091110167
:101AF000420F532F511D9A01220F331F240F351F00
:101B000029503D4F402F6F2D0E94C50BC394D7CF56
:101B1000861BECCFE2EFF2E09181282F43816281B6
:101B200088E0890F0C94F80C81E00C948A0DE2EFA8
:101B3000F2E09181282F4381628188EF890F0C9414
:101B4000F80C81E00C94970DE2EFF2E0628128E05E
:101B5000620F08F46FEF282F438181810C94F80CF9
:101B600081E00C94A40DE2EFF2E0628128E0621BB8
:101B700008F460E0282F438181810C94F80C81E007
:101B80000C94B30DE2EFF2E0438128E0420F08F439
:101B90004FEF282F628181810C94F80C81E00C9426
:101BA000C20DE2EFF2E0438128E0421B08F440E07E
:101BB000282F628181810C94F80C81E00C94D10D66
:101BC00020E00C94F80CEF92FF921F93CF93DF93D9
:101BD000EC0110E0EE24EA94F12C60911301161749
:101BE00070F00E94400C9A818C8190FF27C08F5F1B
:101BF0008C83DF91CF911F91FF90EF9008952091FA
:101C00001101422F410F5527551FCA019A01220F7A
:101C1000331F280F391F29503D4F70E0C7010E9424
:101C2000FC29962F8C814091F5026091F402199F56
:101C3000800D11240E94C50B1F5FCFCF8150D8CFDC
:101C4000AF92BF92CF92DF92EF92FF920F931F93CA
:101C5000CF93DF93FC0182810FEF80FF01E010E062
:101C60004AE0A42E809113011817C8F00E94400C7E
:101C700080910602013009F055C0811102C08091A7
:101C80001301815080930602DF91CF911F910F9134
:101C9000FF90EF90DF90CF90BF90AF900895C091EC
:101CA0001101C12ED12CCC0DDD2DD11DCE01880FFF
:101CB000991FC80FD91FC950DD4F198218821A8287
:101CC00034E0E32EF12CB12C809106028B0D8B3089
:101CD0001CF16A2D0E94DA29892F082E000C990B1D
:101CE000C816D90691F48091F5028E9DA0018F9DB2
:101CF000500D112455954795559547959E01609136
:101D0000F4028091F3020E94C50BB00EF1E0EF1ACD
:101D1000F108D1F61F5FA6CF87FFDFCF90911301A7
:101D2000890FDBCF90E001966091130170E00E9473
:101D3000FC29A8CF0F931F93CF93DF9380911101BC
:101D40009091120123E0829FF0011124E950FD4F90
:101D5000891740F1C0E0D3E060911301C61740F14C
:101D60000E94400C20910D0180910502820F80930A
:101D7000050290910E01920F90930E01191654F4E2
:101D8000082E000C990B409113014150550B8417FC
:101D900095071CF0219520930D01DF91CF911F91A4
:101DA0000F9108951182108212828F5F3396D0CFE7
:101DB0000C2F10E070E0C8010E94FC292091110155
:101DC000820F482F50E020910502022E000C330BA9
:101DD00002171307BCF020910E01022E000C330BEA
:101DE000201731077CF08D9F9001112429503D4F21
:101DF0004091F5026091F4028091F3020E94C50BBC
:101E0000CF5FAACFFA01EE0FFF1FE40FF51FE950D5
:101E1000FD4F118210821282F3CF8F929F92AF9268
:101E2000BF92CF92DF92EF92FF920F931F93CF93C7
:101E3000DF93EC014C81042F10E09801D8010E943F
:101E4000402A9B01AC010E94562A4B015C01E0E252
:101E5000F0E0E01BF10BA5E5B0E0AC019B010E94B6
:101E6000562A6B017C019F01DF010E94382A9B01E9
:101E7000AC010E94612A9B01AC01280D391D4A1D4D
:101E80005B1DC701B6010E94102AF22E822F90E03E
:101E900039E23F1560F143E0249F9001112435950C
:101EA0002795122F109500E085E5E82EEF18809118
:101EB0001301081758F10E94400C9C8181E099237E
:101EC00019F0903219F48FEF80930C0180910C017E
:101ED000890F8C83DF91CF911F910F91FF90EF902D
:101EE000DF90CF90BF90AF909F908F90089525E5A1
:101EF00030E0B901681B790B9B01220F331F260FBD
:101F0000371F37FFCCCF2F5F3F4FC9CF8E2D01FD3D
:101F10008F2D20911101622F600F7727771F9B0172
:101F2000220F331F260F371F29503D4F412F60913D
:101F3000F4020E94C50B0F5FBACF0F931F93CF938C
:101F4000DF93EC0110E000E090911301901711066F
:101F500009F06CF40E94400C8C8190E00196817035
:101F600099278C83DF91CF911F910F910895209134
:101F70001101A801420F511D9A01220F331F240F96
:101F8000351F29503D4F4C816091F4028091F3023E
:101F900096959017110651F04CF0442349F040916A
:101FA000F5020E94C50B0F5F1F4FCECF4423B9F33C
:101FB00040E0F7CF4F925F926F927F928F929F9205
:101FC000AF92BF92CF92DF92EF92FF920F931F9347
:101FD000CF93DF93FC016280448081E08483E1EF52
:101FE000F2E07490E0E7F3E0E491812C75E0972E45
:101FF000F2E0CF2EDD24D394AA24AA94B12C552448
:102000005A94E7190E2F10E080911301881690F072
:10201000DF91CF911F910F91FF90EF90DF90CF90C4
:10202000BF90AF909F908F907F906F905F904F90F8
:102030000C94400CE82CF12C82E0861568F09E9CF4
:10204000F0019F9CF00D1124E95FFD4F8091F30298
:1020500080838091F4028183411023C09E9CF00113
:102060009F9CF00D1124E95FFD4F13821282209195
:102070001101C701820F911D9C01220F331F280FF0
:10208000391F29503D4F9E9CF0019F9CF00D11245B
:10209000E95FFD4F4281618180810E94C50B83947D
:1020A000B3CF9E9CE0019F9CD00D1124C95FDD4FF2
:1020B0008B818823E9F081508B83859DC001112499
:1020C0006C8170E00E94E829FB01FF27EF50FD4F73
:1020D0008491E82FE719E59DC0011124B8010E9401
:1020E000E8298091F502689FB00111247A83BFCF5F
:1020F0000E94B52A2091F502269521582C9DA00119
:102100002D9D500D1124452F5527841795070CF050
:10211000AECF82E0861588F40E94B52AB5010E94F0
:10212000FC2988830E94B52A2091F4022695622F0B
:1021300070E00E94FC29280F29839E9CF0019F9C3F
:10214000F00D1124E95FFD4F12828091F502893C68
:1021500058F088EC9E9CF0019F9CF00D1124E95FE3
:10216000FD4F8483838383CF8431A0F784E1F2CF52
:10217000E2EFF2E080818E7F8083608171818281D5
:1021800093810E94E60B109241022FEF80E792E0CC
:10219000215080409040E1F700C000000C94400CBA
:1021A0006091F202669570E04BE050E084E191E0CE
:1021B0000E94C52A892B19F481E0809341020E9474
:1021C000AF2290933A028093390208959091F202DF
:1021D00090FF35C09170811128C092609093F202F7
:1021E000662351F06091F2027091F3028091F40243
:1021F0009091F5020E94E60B6091F202669570E004
:102200004BE050E084E191E00E94C52A892BA1F0C7
:102210001092410281E080933C024091F50260916E
:10222000F4028091F3020C94E00D8B3210F094656F
:10223000D5CF880F982BD2CF0E94D010EBCF089526
:10224000682F9091F202969581E0890F8B3208F009
:1022500081E00C94E61081E00C942011682F90919D
:10226000F20296958FEF890F09F48AE20C94E6103A
:1022700081E00C942E1161E00C94E610E2EFF2E0A4
:1022800080818160808386950C943B118091F2025D
:1022900080FD0C94B8100C943E1160E00C94E61094
:1022A00080913F0281112EC00E942E21811104C015
:1022B0000E94D3210E94F80B0E94E20B6093F2026D
:1022C0007093F3028093F4029093F5026E7F61F4B1
:1022D0000E94F80B0E94E20B6093F2027093F302EB
:1022E0008093F4029093F5020E94D30B1092410266
:1022F0008091F20280FF03C086950E944D1181E01B
:1023000080933F0208950F931F93CF93DF938091A3
:102310004102882309F496C080914002E091F202C4
:10232000E695E81BE0933B02823091F5F0E0E35143
:10233000FD4FE491CE2FD0E005E91CE080913C02F6
:10234000882361F010923C020E94AF2290933A02DF
:102350008093390210923E0210923D020E94AF22F9
:10236000E0913902F0913A028E1B9F0B8F3F9F47FD
:1023700008F068C0EC0FFD1FF0933A02E0933902B9
:1023800089E392E0F801DF91CF911F910F910994B9
:10239000863049F4F0E0E651FD4FE491CE2FD0E0D5
:1023A00009EA1CE0CBCF893051F4E695F0E0E95121
:1023B000FD4FE491CE2FD0E003EE1DE0BFCF8F3074
:1023C00051F4E695F0E0EC51FD4FE491CE2FD0E0D2
:1023D00000E21EE0B3CF853149F4F0E0EF51FD4F4C
:1023E000E491CE2FD0E00AE91EE0A8CFC8E2D0E009
:1023F0000DE01FE0883109F4A1CF833239F4EFED0D
:10240000F2E0C591D49109EB1CE098CFC4EFD1E084
:102410000DE91FE0843209F491CFC0EDD7E002EC62
:102420001BE0853209F08ACF8E2F63E00E94CE290F
:10243000E92FF0E0E452FD4FE491CE2FD0E00AED19
:102440001FE07CCFDF91CF911F910F910895FA018A
:10245000811101C0FB010994CF93DF93C82FD62FC0
:102460000E94070C8C1740F00E94070C8D1720F477
:10247000DF91CF910C942B118C2FDF91CF910C9485
:102480003B111F93CF93DF93EC01FB0112811123CA
:1024900009F4C2C00E9476208272CD3CFCE5DF07C1
:1024A00009F4A0C008F044C0C73CECE5DE0709F41D
:1024B00085C0F0F4C43C9CE5D90709F475C048F424
:1024C000C33CDC4509F46CC0812FDF91CF911F9193
:1024D0000895C53C9CE5D90709F46BC041EA5DE06D
:1024E00064E97DE0C63CDC4579F70E9427125AC0BA
:1024F000CA3CFCE5DF0709F46BC068F4C83CECE5B6
:10250000DE0709F460C040EB5DE06FEB7DE0C93CA5
:10251000DC4559F3D9CFCB3C9CE5D90709F45DC024
:102520004AE35CE063E27CE0CC3CDC45F1F2CCCFFA
:10253000C23DFCE5DF0709F464C098F4CF3C9CE59C
:10254000D90709F458C008F452C0C03DFCE5DF07C4
:1025500009F454C0C13DDC4509F0B6CF6EE089E016
:102560001CC0C53D9CE5D90709F451C058F4C33DD2
:10257000FCE5DF0709F448C0C43DDC4509F0A4CF01
:1025800088E136C0C63D9CE5D90709F443C06AE23C
:1025900085E2CE35DD4509F097CF0E942C1202C0AE
:1025A0000E94461110E090CF48E351E16BE271E1E7
:1025B0009CCF4BE251E168E371E197CF44E95DE0E4
:1025C00061EA7DE092CF4FEB5DE060EB7DE08DCF87
:1025D0004DED5DE06EEC7DE088CF4EEC5DE06DEDA5
:1025E0007DE083CF43E25CE06AE37CE07ECF81E084
:1025F0000E943B11D7CF65E082E0CFCF68E086E054
:10260000CCCF64E18FE0C9CF67E185E1C6CF62E25C
:1026100089E1C3CF83E2ECCF11E056CF539A4BB19F
:10262000477F5BB15860EFB7F8949B01220F331FCF
:10263000260F371F280F391F2817390741F4EFBF1E
:102640008FE594E00197F1F700C000000895DC01E8
:102650006D91CD0178E05BB9000000C067FF4BB918
:10266000660F000000C000C000C04BB900C07A95E2
:1026700091F7E2CF0C94F704AF92BF92CF92DF9222
:10268000EF92FF920F931F93CF93DF93ABEAB1E0EA
:1026900029EA31E086E4A82E82E0B82E6DEA71E0E6
:1026A00041E050E00D91802F82958F7090E0FC0109
:1026B000C1A10F707A01002E01C0EE0C0A94EAF756
:1026C000FE2DF095CF23FC01C1A3C2A1CE29C2A348
:1026D000E90119919E01E12FE295EF70F0E0F1A080
:1026E0001F706A01012E01C0CC0C0A94EAF7EC2C91
:1026F000E094EF20E1A2F2A0FC28F2A2EC0188A174
:1027000090E002C0959587950A95E2F78170E0A167
:10271000F0E002C0F595E7951A95E2F790E0E0FD4C
:1027200092E0892BF50181935F016A177B0709F01D
:10273000B9CFDF91CF911F910F91FF90EF90DF9074
:10274000CF90BF90AF9008956F927F928F929F929B
:10275000AF92BF92CF92DF92EF92FF920F931F93AF
:10276000CF93DF9306E412E08BEAC82E81E0D82EE7
:1027700099EAE92E91E0F92E24E4822E22E0922EAD
:10278000C2E4D2E0712C612C34E0A32EB12CD8012C
:10279000EC91EE0FEE0FED938D01D6012D916D01B1
:1027A000A22FA295AF70B0E090968C9190E02F7020
:1027B00002C0959587952A95E2F781709927D701F0
:1027C0004D917D01A42FA295AF70B0E090962C9111
:1027D00030E04F7002C0359527954A95E2F7A90180
:1027E0004170552720FF02C042E050E0842BE82BC7
:1027F000D8011197EC93EF70F0E0E756FE4F80811F
:10280000F4019081890F808320E0843044F0888136
:102810008F5F888360E0872D0E943A1321E0D40106
:102820008C918D3F44F488818150888361E0872DAD
:102830000E943A1321E0F4018081082E000C990BCC
:10284000B5010E94FC29D4018D934D01622A219685
:10285000B1E07B1210C0862DDF91CF911F910F91B7
:10286000FF90EF90DF90CF90BF90AF909F908F90B0
:102870007F906F9008957724739489CF0F931F935F
:10288000CF93DF93C42FD22FFC0182818823C9F01C
:1028900040934A020E94AF229093490280934802DB
:1028A00080E28C0F883008F050C0C77081E001C012
:1028B000880FCA95EAF7DF91CF911F910F910C9481
:1028C000D41810914A02141335C080914802909197
:1028D00049020E94C722883C910560F5C0E2CD0FF5
:1028E0001D17B9F080E2810F883040F4177081E045
:1028F00001C0880F1A95EAF70E94DB18C83048F427
:1029000081E09D2F977001C0880F9A95EAF70E9489
:10291000D418802F0E94CC18C830B8F4D77081E04A
:1029200001C0880FDA95EAF7DF91CF911F910F91DF
:102930000C94DB1880E28C0F883038F4C77081E08B
:1029400001C0880FCA95EAF7EFCFDF91CF911F91B1
:102950000F9108950F939C01CB01243F4CE5340760
:1029600059F1A8F4293DFCE53F0701F12A3D4CE56A
:102970003407D1F1283D3C4591F406E221EE41EEC9
:1029800068ED7CE50E943E1480E00F910895263F9B
:10299000FCE53F07E9F0B0F0273F3C45F9F0FC01CA
:1029A0008281882339F110924A02EFCF07E225EEA7
:1029B00045EE69ED7CE5E6CF06E221EE40EE64EF00
:1029C0007CE5E0CF07E225EE44EE65EF7CE5DACF6B
:1029D00006E221EE42EE66EF7CE5D4CF07E225EE7B
:1029E00046EE67EF7CE5CECF08E221E045EE6AEDEA
:1029F0007CE5C8CF81E0C9CFCF93DF93EC01FB0129
:102A00008281882309F419C1C230FCE5DF07C0F1D7
:102A1000C6319CE5D90730F09E012B5F3C4529303B
:102A2000310570F50E9441219093F1028093F002EC
:102A3000C031ECE5DE0709F4CFC008F05BC0C83058
:102A40008CE5D80709F4B6C088F5C430ECE5DE079C
:102A500009F4A8C0C0F4C2308CE5D80709F49CC0C2
:102A60008091F0028260C330DC4509F498C0809107
:102A7000F0029091F1020E944F210E944E1B80E0D3
:102A8000DF91CF9108958091F0028061C630ECE52E
:102A9000DE0709F484C08091F0028860C730DC450D
:102AA00008F47DC08091F002806279C0CC308CE562
:102AB000D80709F489C070F48091F0028C60CA30A4
:102AC000ECE5DE0709F46BC008F478C08091F002F1
:102AD0008E7F65C0CE308CE5D80709F479C080912F
:102AE000F0028B7FCF30DC4508F459C08091F002B2
:102AF0008F7E55C0CC3FECE5DE0709F457C030F5BA
:102B0000C3318CE5D80709F46FC078F4C131ECE526
:102B1000DE0709F465C0C231DC4509F0A8CF0E9488
:102B20004E1B8091F0028F773AC0C5318CE5D807F3
:102B300009F462C008F476C08091F1028160CB3F55
:102B4000DC4509F094CF8093F10291CFC115FDE5EA
:102B5000DF0709F44DC088F48091F1028D7FCE3FEC
:102B60009CE5D90781F38091F1028E7FCF3FDC4550
:102B700050F38091F1028360E6CFC230FDE5DF07BC
:102B800009F459C008F444C080E0C330DD4509F0C1
:102B90006ECF0E94D5216BCF8091F002816080932F
:102BA000F00265CF8091F0028460F9CF8091F1024C
:102BB0008260C9CF8091F0028064F1CF0E944E1BE9
:102BC0008091F0028068EBCF8091F0028D7FE7CF9B
:102BD0008091F002877FE3CF8091F0028F7DDFCF7D
:102BE0008091F0028F7BDBCF8091F002837FD7CF83
:102BF0008091F1028C7FA7CF8091F00282FB992710
:102C000090F921E0922790FB82F990FB83F9C7CFDE
:102C10008091F102982F909591708E7F892B90FB77
:102C200081F991CF0E944E1B9091F002892F97FB62
:102C300087F98058B4CF81E0ACCF81E021CFCF932A
:102C4000DF93EB0186319C4511F50E9476209A8135
:102C5000992399F08A7A91E009F490E090934B02DD
:102C6000811109C089E20E9430200E94B92080E0D1
:102C7000DF91CF91089585E3F6CF80914B028111CA
:102C800004C089E20E943720F0CF85E3FBCF81E0CA
:102C9000EFCF90935102809350020895E09150023B
:102CA000F0915102309721F00190F081E02D0994CC
:102CB00080E00895E0915002F0915102309721F0A8
:102CC0000280F381E02D09940895E0915002F09183
:102CD0005102309739F022E0DC012C930480F58119
:102CE000E02D0994089520914E0230914F0228174B
:102CF000390771F090934F0280934E02E091500299
:102D0000F0915102309721F00680F781E02D09946F
:102D1000089520914C0230914D022817390771F027
:102D200090934D0280934C02E0915002F091510239
:102D3000309721F00084F185E02D099408950E94D8
:102D4000BB22609365027093660280936702909342
:102D500068026093610270936202809363029093B1
:102D6000640208950E94BB2260936502709366021C
:102D7000809367029093680260935D0270935E0295
:102D800080935F0290936002089585B7806885BF45
:102D900085B7806885BF0895089508950C94CC1672
:102DA00008950C94D0160E94C51686E291E20E9406
:102DB0001E230E94CD160C94CE1681E008950C942B
:102DC000DD16089508950E94E1160C94E2160E9403
:102DD000A6220E9468030E9450110E943C130C948A
:102DE000D116AF92BF92CF92DF92EF92FF920F93E4
:102DF0001F93CF93DF93CDB7DEB72A970FB6F89422
:102E0000DEBF0FBECDBF0E94EE0381110E949F1650
:102E100083E5A82E82E0B82E10E000E0C02E802FBF
:102E20000E946103E82EF501F1905F01F81609F4A4
:102E300055C08091E40281FD0E9467038F2D8E258D
:102E4000D12CFF24F394982F9F2109F442C00E94B3
:102E5000DF16882399F0DE82CF82EF2081E009F42B
:102E600080E088870E94AF228160782F9A878987C7
:102E70004E815F8168858A850E949617F801ED5A18
:102E8000FD4F8081F826F0820E9483110E94A413D6
:102E900081110E94B2160E94100A0E944E16909153
:102EA0005202891791F10E944E16809352022A967F
:102EB0000FB6F894DEBF0FBECDBFDF91CF911F914B
:102EC0000F91FF90EF90DF90CF90BF90AF900C9458
:102ED0003C06D394FF0CF7E0DF12B5CF0F5F1F4F16
:102EE0000A30110509F09ACF8FEF89838A831B82FC
:102EF0000E94AF228160782F9D838C8349815A8103
:102F00006B818D810E949617BFCF2A960FB6F894D9
:102F1000DEBF0FBECDBFDF91CF911F910F91FF900C
:102F2000EF90DF90CF90BF90AF900895DF92EF9237
:102F3000FF920F931F93CF93DF93CDB7DEB72B97FD
:102F40000FB6F894DEBF0FBECDBF7A878B87F42E05
:102F5000052F162FE72ED82E61110E9496201E8273
:102F60001D827E2DEC82DD824F2D502F612F8D2D05
:102F70009E812B960FB6F894DEBF0FBECDBFDF91BA
:102F8000CF911F910F91FF90EF90DF900C94C41D93
:102F9000FC01808191810C940220CF93C82F88235B
:102FA00009F48BC08238C1F40E944E1681FD85C0A1
:102FB00089E30E9430200E94B9202FEF81EE94E037
:102FC000215080409040E1F700C0000089E30E945A
:102FD0003720CF910C94B9208338A1F40E944E166B
:102FE00080FD6BC083E50E9430200E94B9202FEF46
:102FF00081EE94E0215080409040E1F700C0000055
:1030000083E5E5CF8438A1F40E944E1682FD55C0B9
:1030100087E40E9430200E94B9202FEF81EE94E0D7
:10302000215080409040E1F700C0000087E4CFCFFE
:103030008CEF8C0F813A90F46C2F80911F0190914E
:1030400020010E94EC21882329F08C2F0E94372038
:103050000E94B9208C2F0E943020BBCF80E28C0FC1
:10306000883048F4C77081E001C0880FCA95EAF73C
:103070000E947920AECFEBE5EC0FE33040F4F0E0B6
:10308000E552FE4F808190E0CF910C947316E8E5F5
:10309000EC0FE73150F4F0E0EE0FFF1FE355FE4F69
:1030A00080819181CF910C948916CD3E30F08C2F88
:1030B0000E942209CF910C94F509CF91089588239D
:1030C00009F452C0823871F40E944E1681FF4CC040
:1030D00089E30E9430200E94B92089E30E943720B2
:1030E0000C94B920833859F40E944E1680FF3CC0DE
:1030F00083E50E9430200E94B92083E5EFCF843819
:1031000059F40E944E1682FF2FC087E40E9430209F
:103110000E94B92087E4E2CF9CEF980F913AF0F239
:1031200090E2980F983050F4877091E001C0990FA9
:103130008A95EAF7892F0E947F20D2CF9BE5980FCE
:10314000933020F490E080E00C94731698E5980F8B
:10315000973120F490E080E00C9489168D3E20F0A9
:103160000E947C090C94F50908951F93CF93DF9377
:10317000182FEB010E94CD17209731F4812FDF919A
:10318000CF911F910C945F188FE99FE00197F1F7A1
:1031900000C000002197F0CF70E060E0893311F4A7
:1031A00060E570E00C94B518882321F00E94792026
:1031B0000C94B9200895882321F00E947F200C945C
:1031C000B9200895BF92CF92DF92EF92FF920F93B2
:1031D0001F93CF93DF936C01D62FC72FFC01128171
:1031E000058102950F700E944E20E82E8823A1F0E1
:1031F000E12E112389F08C2F807F803429F080E22A
:103200008D0FE12C883040F082E00E940A210E945C
:103210004E2091E0E82EE926BC2EB2949FE0B92220
:10322000FBE0FB1598F1EB2DF0E0E55CF44D0C9420
:10323000322A0C2F0F70C07F11F00295007F1123EE
:10324000A9F0002359F080E28D0F883010F0D111E1
:1032500009C0802F0E9479200E94B9208D2F0E94E2
:10326000CD1714C0802F0E948920F6CF8D2F0E9489
:103270005F18002359F080E28D0F883010F0D111D3
:103280002CC0802F0E947F200E94B9202B2D285017
:10329000330B2430310520F40E944E160E943C0668
:1032A000EE2009F48EC10E944A2080FD8AC1F601F9
:1032B00012820E9444200E94D01EC6010E94021B5E
:1032C0000E944420DF91CF911F910F91FF90EF90CA
:1032D000DF90CF90BF900C94F11E802F0E948F2022
:1032E000D3CF2C2F2F70F22EC07FC03219F0F29462
:1032F00080EFF822DD2369F0D13049F1112391F1FB
:10330000002351F1F601858180FFA8CF8F7085835E
:1033100023C0112381F0011106C00E949C208F2937
:103320000E94D418B3CF0130C1F70E949C208F298E
:103330000E94A220ABCF011106C00E94AF208F2DAA
:103340000E94DB18A3CF013009F4A0CFF6CF1123E0
:1033500029F0063008F09ACF8F2DE2CF053008F023
:1033600095CFEDCF002359F3D93349F4FFEF27EE82
:1033700033E0F15020403040E1F700C000008D2FD5
:103380000E945F1883CF8C2F86958695837069F095
:10339000813009F07BCF8D2F9C2F9370111102C0CB
:1033A00090E080E00E94891671CF8D2F9C2F937042
:1033B000111102C090E080E00E94731667CF8D2F3C
:1033C000112329F00E9422090E94F5095FCF0E9473
:1033D0007C09FACF8C2F837009F041C0111156CFB0
:1033E0004D2F429546954770440F440F0D2F0F7097
:1033F00010E030E020E0042E04C0000F111F221F57
:10340000331F0A94D2F760E070E0CB01D4FF0FC005
:103410006FE070E080E090E004C0660F771F881FC7
:10342000991F4A95D2F76095709580959095C695AD
:10343000C695C370602B712B822B932BC23049F041
:1034400058F4C13019F00E94821E20CF0E94701ED5
:103450001DCF0E94941E1ACF0E946E1E17CF869514
:10346000112311F08C2F8170882309F40FCF4D2F79
:10347000429546954770440F440F0D2F0F7010E092
:1034800030E020E0042E04C0000F111F221F331F64
:103490000A94D2F760E070E0CB01D4FF0FC06FE078
:1034A00070E080E090E004C0660F771F881F991FCE
:1034B0004A95D2F76095709580959095C695C6957A
:1034C000C370602B712B822B932BC23049F058F4C0
:1034D000C13019F00E94471FD9CE0E94351FD6CEA9
:1034E0000E94591FD3CE0E94AA1ED0CECF701123A6
:1034F00029F08C2F0E94D01E8D2F12CF8D2F0E946D
:10350000DB188C2F0E94F11EC1CED23F89F160F4EE
:10351000D03FC9F0D13F29F1112309F442C0011174
:103520009DCE8C2F8F7121C0D33F39F1D43FA1F7AD
:10353000112369F1CF718C2F0E94D01E63E08C2F74
:103540000E94EF20A3CE112341F0053008F09ECE5B
:103550008C2F8F710E94141F99CE063008F096CEE2
:10356000F7CF8C2F8F71112369F20E94D01E8ECE5F
:103570008C2F8F711123C9F3C5CF112329F08C2F04
:103580008F710E94BB1E82CE0E94B61E7FCE81E04C
:103590000E940A21023008F479CE82E00E940A21BA
:1035A00075CE002359F0D93309F0E9CE8FEF97EEAD
:1035B000E3E081509040E040E1F7DFCE8C2F8F7147
:1035C000A1CFDF91CF911F910F91FF90EF90DF90EE
:1035D000CF90BF9008950F931F93CF93DF93EC018B
:1035E000688179818A810E940C208C010E946B1F66
:1035F0000E946D1EB801CE01DF91CF911F910F91F6
:103600000C94E218CF93DF93EC018B819C81892B82
:1036100029F08881998189238F3F59F4DF91CF91D7
:103620000895CE010E94EB1ACE01DF91CF910C9448
:10363000BC05CE010E94DD058111F3CF0E944E2012
:10364000882361F38A81882349F382E0DF91CF9157
:103650000C940A21882321F00E9489200C94B9201F
:103660000895882321F00E948F200C94B92008959A
:1036700090E080E00E94731690E080E00E9489163E
:103680000E9496200E9499200E94B9200E941C0B43
:103690000C94F5090E943E200C94381B0E94862051
:1036A0000C944A1BE92FE295EF70E250EE3070F473
:1036B000F0E0E95BF44D0C94322A803F19F020F4DD
:1036C000883E20F481E00895843FE1F380E008958E
:1036D000883EC0F3813FD1F7F5CF93FB882780F96F
:1036E00008950E9402200C94521BCF93DF9300D0C8
:1036F00000D00F92CDB7DEB70F900F900F900F90C4
:103700000F90DF91CF910895CF93DF9300D000D039
:1037100000D0CDB7DEB726960FB6F894DEBF0FBE49
:10372000CDBFDF91CF9108951F93CF93DF93C091C9
:103730006A0216E080916B028C1304C0DF91CF9176
:103740001F910895D0E01C9FF0011D9FF00D1124E2
:10375000E459FD4F4081518162817381848195815B
:103760000E94841B2196C770E5CF40919C02509126
:103770009D0260919E0270919F028091A0029091A3
:10378000A1020C94841B1F93CF93DF938091A1021D
:10379000807FA9F480919E02882389F080916A023B
:1037A000C0916B0260919C0270919D02A0919F025A
:1037B000B091A002D62FD72316E0C81304C0DF9122
:1037C000CF911F91089590E0109711F0DF3F19F409
:1037D00001968770F2CF189F9001199F300D112428
:1037E000F901E459FD4F41814713F2CF408146135F
:1037F000EFCF42814111ECCF438154814A1B5B0BD7
:10380000483C510528F78091A1028F708061809318
:10381000A102F901EF58FD4F80818F708061808394
:103820008CE992E00E94021BDF91CF911F910C94D2
:10383000941BAF92BF92CF92DF92EF92FF920F93C1
:103840001F93CF93DF93CDB7DEB761970FB6F89490
:10385000DEBF0FBECDBF8C0185E0F801DE011D96F5
:1038600001900D928A95E1F7F80140815181E28043
:103870008CE9C82E82E0D82E60919F027091A00240
:103880006115710509F461C190919C0220919D021E
:10389000892F82238F3F09F458C1A380B480F09010
:1038A0009E02F501E61BF70BFF2009F4FCC0809196
:1038B000A102382F307FE83CF10508F0B2C0311189
:1038C00079C0FE2C251323C0941321C0E1101FC022
:1038D0008F7080618093A1020E94B51BC6010E9477
:1038E000021B8091A102F80185838F2D61960FB68E
:1038F000F894DEBF0FBECDBFDF91CF911F910F9126
:10390000FF90EF90DF90CF90BF90AF900895AB28DD
:1039100029F0842F85238F3F09F033C180E0F82FF1
:10392000F170DF2E80FF3CC080916A0220916B0213
:1039300036E0821315C04D875E878D859E850E9477
:103940000220292F22952F702230F0F0243018F514
:103950009F70F1F0F8019581907FD1F4D12C1EC0B9
:1039600090E0389FF001399FF00D1124E459FD4F8C
:103970006181651306C06081641303C062816E11AA
:103980000FC001968770D5CF9F7011F0882331F357
:10399000805E883018F3C8010E94021BFD2CA5CF61
:1039A000EE2009F4A2CF8091A10281608093A10250
:1039B000F12C9BCF251306C0941304C0F801EE2010
:1039C00009F48DC04D875E878D859E850E94711B91
:1039D000882319F1EE2009F18091A102803270F064
:1039E00020919C0230919D0238872F831986BB86D7
:1039F000AA868C87CE0107960E94021B86E0F801FA
:103A0000ACE9B2E001900D928A95E1F70E94C31BE8
:103A10000E94B51BFF24F39468CFC8010E94021BCB
:103A2000F9CF311113C07A2DB98AA88A6E2D8989F0
:103A30000E94751B8CE992E00E94021B86E0F60151
:103A400011928A95E9F70E94B51BB2CF25130FC0DA
:103A500094130DC0E1100BC0F8018583C8010E94CA
:103A6000021B86E0F60111928A95E9F73ECF4D8759
:103A70005E878D859E850E94711B882371F2EE20E2
:103A800061F28091A102803208F4B8CF20919C02AB
:103A900030919D023A8329831B82BD82AC828E8342
:103AA000CE010196A9CFE83CF10508F041C0FE2CFB
:103AB000EE2009F4B2CF25132AC0941328C08091B8
:103AC000A10280FD1BC0982F907FC1F0F801858373
:103AD000903F31F0982F907F905F8F70892B858376
:103AE000C8010E94021B86E0F801ACE9B2E0019037
:103AF0000D928A95E1F70E94B51BF7CE86E0F8019A
:103B0000ACE9B2E001900D928A95E1F7EECE4D87D7
:103B10005E878D859E850E94711B81116FCF80917C
:103B2000A10281608093A102C8010E94021BDDCE28
:103B30007A2DB98AA88A6E2D89890E94751B86E024
:103B4000F60111928A95E9F7D6CFEE2009F465CFF8
:103B50004D875E878D859E850E94711BF82E882378
:103B600009F45BCF86E0F801ACE9B2E001900D9278
:103B70008A95E1F78CE992E00E94C8170E94C31B66
:103B8000BACF81E08E25CBCE1F93CF93DF93CDB7F5
:103B9000DEB72C970FB6F894DEBF0FBECDBF4F83B4
:103BA000588769877A878B879C87CE0107960E9402
:103BB000191C882369F08A859B85892B39F04F81F0
:103BC0005885842F85238F3F09F071C016E05FC0B0
:103BD00086E0FE013796DE01119601900D928A95DE
:103BE000E1F78A859B85892B89F38F8198858923C5
:103BF0008F3F61F320916B0230E0C901019687701D
:103C0000992740916A024817190671F40E944E1BC9
:103C100010926B0210926A0286E0ECE9F2E0DF019A
:103C20001D928A95E9F7D2CF96E0929FD001939F9B
:103C3000B00D1124A459BD4FFE01319601900D9293
:103C40009A95E1F780936B020E94941BBFCF819FEE
:103C5000C001112484599D4F0E94191C8823E9F04A
:103C6000E0916A021E9FF0011124E459FD4F40814A
:103C7000518162817381848195810E94841B80912E
:103C80006A0290E001968770992780936A0280917A
:103C90006A0290916B028913DACF2C960FB6F894D2
:103CA000DEBF0FBECDBFDF91CF911F910895698513
:103CB0007A858B859C850E94841B88CF08950C94FF
:103CC0005E1E0E945F1E6093D3027093D4028093A5
:103CD000D5029093D6020C94381B08950C94611E63
:103CE0000F931F930091D3021091D4022091D5021B
:103CF0003091D602602B712B822B932B1F910F9149
:103D00000C94611E0F931F930091D3021091D40263
:103D10002091D5023091D602602371238223932310
:103D20001F910F910C94611E0F931F930091D3026A
:103D30001091D4022091D5023091D60260277127CC
:103D4000822793271F910F910C94611E0C945E1E85
:103D50000C94A61E0E94A81E6093CF027093D002FE
:103D60008093D1029093D2020C94381B60E070E0F3
:103D7000CB010C94AA1E0F931F9341E050E060E02A
:103D800070E08A019B0104C0000F111F221F331F26
:103D90008A95D2F7C901B8011F910F910C94AA1E00
:103DA0000F931F9341E050E060E070E004C0440FC7
:103DB000551F661F771F8A95D2F78091CF02909189
:103DC000D002A091D102B091D2028A019B01082BAE
:103DD000192B2A2B3B2BC901B8011F910F910C9471
:103DE000AA1E0F931F9341E050E060E070E004C012
:103DF000440F551F661F771F8A95D2F7CB01BA0172
:103E000060957095809590950091CF021091D002A9
:103E10002091D1023091D202602371238223932317
:103E20001F910F910C94AA1E0F931F9341E050E035
:103E300060E070E004C0440F551F661F771F8A952D
:103E4000D2F78091CF029091D002A091D102B0918F
:103E5000D2028A019B01082719272A273B27C9017B
:103E6000B8011F910F910C94AA1E0F931F930091FC
:103E7000CF021091D0022091D1023091D202602B5A
:103E8000712B822B932B1F910F910C94AA1E0F93D1
:103E90001F930091CF021091D0022091D102309156
:103EA000D20260237123822393231F910F910C94DC
:103EB000AA1E0F931F930091CF021091D002209160
:103EC000D1023091D20260277127822793271F9158
:103ED0000F910C94AA1E089527E0929F800D112443
:103EE000982F977041E001C0440F9A95EAF78695A4
:103EF0008695869595E0899FF0011124EE55FD4F3A
:103F000090E080E070E05191DF0111979B01082E55
:103F100002C0369527950A94E2F72170219525274E
:103F2000242325272C9301968530910561F7089568
:103F300027E0929F800D1124982F97708695869583
:103F4000869525E0829FF0011124EE55FD4F50E04B
:103F500040E080E0219130E0092E02C0369527959F
:103F60000A94E2F721703327042E01C0220F0A942D
:103F7000EAF7822B4F5F5F4F4530510559F708959F
:103F8000BF92CF92DF92EF92FF920F931F93CF9346
:103F9000DF938C01C090CF02D090D002E090D1028C
:103FA000F090D2028091D3029091D402A091D502D8
:103FB000B091D602C82AD92AEA2AFB2ACFE1D0E05A
:103FC000BC2ED701C6010C2E04C0B695A7959795B7
:103FD00087950A94D2F780FD0EC0219788F7B12CFF
:103FE0008B2DDF91CF911F910F91FF90EF90DF907C
:103FF000CF90BF900895B8018C2F0E94580601976A
:1040000061F3EECFCF93DF93EC010E94C01FBE019E
:10401000DF91CF910C9458061F93CF93DF93EB0160
:1040200090916902992331F0CB01DF91CF911F91DB
:104030000C940220882379F0CB010E94C01F182F16
:10404000682FCE010E946C1FBE01812FDF91CF919E
:104050001F910C945806CB010E94981F182FF4CF83
:10406000682F80911F01909120010C942222682FCB
:1040700080911F01909120010C94242280911F01B6
:10408000909120010C9426228091D70285958595E8
:10409000859508958091D702877008959091D702F1
:1040A000977081E009F480E008959091F10292FB0D
:1040B000222720F9281751F080FB92F99093F10202
:1040C0008091F0029091F1020C944F21089580911B
:1040D000F10282FB882780F991E089270C94552012
:1040E00081E00C94552080E00C9455208091E302EF
:1040F00008959091E302892B8093E30208958095BF
:104100009091E30298239093E30208951092E302C2
:1041100008959091E202892B8093E20208958095A0
:104120009091E20298239093E20208951092E202A5
:1041300008951092E10208958091D802089508959B
:104140000C949F209091F10292FD08C09091D802AA
:10415000981721F08093D8020C94A02008958091A4
:10416000D802882329F01092D80280E00C94A02075
:104170000895E0911F01F09120018091E302808376
:10418000E0911F01F091200180819091E202892B42
:104190008083E0911F01F091200180819091E102E4
:1041A000892B80839091D802992381F0E0911F019F
:1041B000F09120018081892B808380911F01909153
:1041C00020010E94DA2181110E94AF2080911F01FD
:1041D000909120010C945A1608950C94EC20909123
:1041E000F10292FD10C098E0899F90011124622B8A
:1041F0006093D7020E94D01E8091D7028595859545
:1042000085950C94ED200C94D01E1092D70280E07E
:104210000C94ED209091D702809589238093D7024A
:10422000282F277039F4282F082E000C330B9217F3
:10423000130621F49091F10292FF07C085958595B0
:1042400085950E94F11E0C940521089580E0089543
:104250006FEF7FEF90E080E00C94042B90E080E023
:104260000E94E02A21E08A3E9E4F09F020E0822F42
:10427000089582E090E00C94D22A83E090E00C94C0
:10428000D22ACF9384E090E00E94D22AC82F82E203
:1042900090E00E94D22A982F8C2FCF910895CF932F
:1042A000C92F682F84E090E00E94E62A6C2F82E2FA
:1042B00090E0CF910C94E62AAB01BC018FE090E036
:1042C0000C94F82AAB01BC0183E190E00C94F82A2D
:1042D00060E070E0CB010C94622160E070E0CB0103
:1042E0000E945C210C9468216AEE7EEF90E080E0F1
:1042F0000E94042B60E082E090E00E94E62A60E0E9
:1043000083E090E00E94E62A1092D3021092D40239
:104310001092D5021092D60260E084E090E00E94F4
:10432000E62A60E082E290E00E94E62A60E085E012
:1043300090E00E94E62A60E086E090E00E94E62A93
:104340006FEF87E090E00E94E62A40E050E0BA017B
:1043500088E090E00E94F82A60E08DE090E00E9402
:10436000E62A40E050E0BA0188E190E00E94F82A95
:1043700060E087E190E00E94E62A40E050E0BA0168
:104380008CE190E00E94F82A70E060E080E290E02A
:104390000E94042B40E050E0BA0188E190E00E94C6
:1043A000F82A0C946D210C947421682F8EE090E013
:1043B0000C94E62A9C012E5F3F4FAC01485F5F4F93
:1043C00080E02417350709F40895F90191919F01C0
:1043D0009923B9F38F5FF5CF662349F0FC0132963C
:1043E00008962191261729F0E817F907D1F780E000
:1043F000089581E008959C01FC0132969FEF80E0D2
:104400004191461751F09F3F19F4411101C0982F77
:104410008F5F8630A9F79F3F09F40895290F311D5A
:1044200097FD3A95F90162830895FC01329608964A
:104430002191261303C0DF0111971C92E817F90799
:10444000B9F708950C94FB210C941522029626E0EE
:10445000FC0111922A95E9F70895089508950C94A6
:104460002E2280911D03843049F10E942F2280E08A
:104470000E943C061092E50288E190E020E40FB62D
:10448000F894A895809360000FBE2093600083B7D6
:10449000817F846083BF83B7816083BF7894889570
:1044A00083B78E7F83BF0FB6F894A8958091600084
:1044B000886180936000109260000FBE0895089597
:1044C000CF930E942D220E94EE030E945F22C0E043
:1044D0008C2F0E946103811105C0CF5FCA30C1F7E4
:1044E000CF91089581E0FCCF08950C9474220E942E
:1044F0004E1B0E944E160E943C060C9475221F9281
:104500001FB61F9211248F939F93AF93BF938091F7
:10451000E502811113C08091150390911603A091BB
:104520001703B09118034196A11DB11D8093150387
:1045300090931603A0931703B0931803BF91AF9104
:104540009F918F911F901FBE1F90189582E084BD90
:1045500093E095BD9AEF97BD80936E0008952FB7B5
:10456000F8948091150390911603A0911703B091D0
:1045700018032FBF08952FB7F89460911503709119
:10458000160380911703909118032FBF08959C0183
:104590004FB7F8948091150390911603A0911703DB
:1045A000B09118034FBF821B930B089578941F920C
:1045B0001FB61F9211248F939F93AF93BF93809147
:1045C000150390911603A0911703B091180301965B
:1045D000A11DB11D8093150390931603A09317039B
:1045E000B0931803BF91AF919F918F911F901FBE01
:1045F0001F90189581E08093E00080E28093D800BE
:104600001092C9008FE19EE40197F1F700C000000D
:1046100087E090EBDC018093260390932703A0931F
:104620002803B093290388E19CE00FB6F894A8957D
:10463000809360000FBE90936000FFCF9093DF01E6
:104640008093DE0108958091EE020895CF93DF9369
:1046500000D00F92CDB7DEB790911D03943019F5BD
:1046600089837B836A8382E08093E9008FEF909156
:10467000E800815095FD06C095ED9A95F1F7000090
:104680008111F5CF8091E80085FF0DC050E040E03A
:1046900063E070E0CE0101960E943D258091E80024
:1046A0008E778093E8000F900F900F90DF91CF915D
:1046B0000895BC0184E00C942623BC0183E00C9493
:1046C00026239C0182E08093E9009FEF8091E8001F
:1046D000915085FD06C085ED8A95F1F70000911196
:1046E000F5CF8091E80085FF0CC050E040E066E027
:1046F00070E0C9010E943D258091E8008E7780938B
:10470000E8000895CF93DF93EC0181E08093E90006
:104710008FEF9091E800815095FD06C095ED9A9538
:10472000F1F700008111F5CF8091E80085FF14C0FA
:1047300050E040E068E070E0CE010E943D258091AD
:10474000E8008E778093E80088E0FE01A6EEB2E0F4
:1047500001900D928A95E1F7DF91CF9108958091B4
:104760001C03811109C00E94CD260E942A27809136
:10477000E20084608093E200089510921C03089583
:1047800008950895089542E061EC81E00E94492671
:1047900042E261EC82E00C94492680911F03833051
:1047A00009F45FC030F48130C1F1823009F49BC05C
:1047B00008958A3009F487C08B3009F46DC08930C0
:1047C00009F04EC080911E03813209F049C08091EA
:1047D000220390912303029708F042C08091E800E1
:1047E000877F8093E8008091E80082FF35C0909138
:1047F000F3008091F200029729F48091F1008B7F01
:10480000813021F48091F1008093EE028091E800E4
:104810008B778093E8000C947D2680911E03813A6B
:10482000F9F48091E800877F8093E800809122036B
:1048300090912303892B61F468E086EE92E070E0AA
:104840000E948C258091E8008B778093E800089582
:1048500060E090E080E0F3CF80911D038111C3CF31
:10486000089580911E03813AD9F780912203909197
:104870002303892BA9F78091E800877F8093E800C4
:104880008091E80080FFFCCF80912B018093F100A4
:104890008091E8008E77BDCF80911E03813201F7B1
:1048A0008091220390912303892BD1F68091E80017
:1048B000877F8093E8000E947D268091200380936B
:1048C0002B010C944E1B80911E03813249F680917E
:1048D000E800877F8093E8000E947D268091210375
:1048E0008093EF02089580911E03813A09F0B8CFBA
:1048F0008091E800877F8093E8008091E80080FF46
:10490000FCCF8091EF02C2CF84B7877F84BF0FB600
:10491000F894A8958091600088618093600010925F
:1049200060000FBE80E890E00FB6F89480936100BD
:10493000909361000FBE0E94D3160E94CD260E9464
:104940002A278091E20084608093E20078940E949C
:10495000B3290E94E71681E291E00E9449168091F6
:104960001D03853099F00E94F1160E94E316F7CFDF
:104970000E94312280911B03882341F00E94602213
:10498000882321F00E9427250E944E1B80911D0341
:10499000853071F30E947722E6CF0C94CF24292F23
:1049A00033272330310519F168F42130310509F43A
:1049B00044C02230310509F445C090E080E030E089
:1049C00020E025C02132310549F122323105A9F715
:1049D00080E490E024EE35E061157105C1F08BE7CD
:1049E00090E029E635E06130710589F0E6CF99273E
:1049F0008130910581F0009729F00297F1F6E6EFFA
:104A0000F4E002C0E8E1F5E0849190E09F01FA0152
:104A1000318320830895E8E0F5E0F6CF89E090E067
:104A20002EE235E06115710591F389E090E027E40D
:104A300035E06130710559F3C0CF82E190E027E5A0
:104A400035E0E5CF8BE390E02CE135E0E0CF80E18D
:104A500089BD82E189BD09B400FEFDCF8091D800F7
:104A60008F7D8093D8008091E00082608093E00089
:104A70008091E00081FDFCCF0895AF92BF92CF926C
:104A8000DF92FF920F931F93CF93DF936C01EB01A3
:104A90008A010E949C26F82E811123C00115110560
:104AA00039F0F80180819181C81BD90BC80ED91E3D
:104AB000B12CA12C2097A9F08091E80085FD22C09F
:104AC0008091E8008E778093E80001151105A1F030
:104AD000F80180819181A80EB91EB182A08285E083
:104AE000F82E8F2DDF91CF911F910F91FF90DF90C6
:104AF000CF90BF90AF9008950E949C268823D1F25A
:104B0000F82EEFCFF60181916F018093F10021978C
:104B1000FFEFAF1ABF0ACECFFC0180912403909122
:104B2000250386179707A0F06115710529F4909168
:104B3000E8009E779093E80090E06115710551F4CC
:104B4000911108C08091E80082FF34C080E0089590
:104B5000BC01F2CF80911D038823C1F18530C1F1E2
:104B60008091E80083FD30C08091E80082FDEACFAB
:104B70008091E80080FFE1CF8091F3002091F20066
:104B8000382F6115710519F02830310558F091E082
:104B90002830310509F090E02091E8002E7720932D
:104BA000E800CBCF81918093F100615071092F5FB4
:104BB0003F4FE7CF80911D03882341F0853041F0BE
:104BC0008091E80083FFBECF81E0089582E00895E0
:104BD00083E00895FC0180912403909125038617BA
:104BE0009707A0F06115710529F48091E8008E7790
:104BF0008093E80090E06115710551F4911108C0AF
:104C00008091E80082FF35C080E00895BC01F2CFBA
:104C100080911D038823C9F18530C9F18091E80096
:104C200083FD31C08091E80082FDEACF8091E800E9
:104C300080FFE1CF8091F3002091F200382F6115C1
:104C4000710519F02830310558F091E02830310510
:104C500009F090E08091E8008E778093E800CBCF58
:104C600084918093F1003196615071092F5F3F4F1D
:104C7000E6CF80911D03882341F0853041F080917B
:104C8000E80083FFBDCF81E0089582E0089583E0CE
:104C90000895982F973028F08F708093E90081E075
:104CA00008959093E900242F762F50E0981731F063
:104CB0007091EC002091ED005091F00021FD02C0B8
:104CC0009F5FE8CF3091EB003E7F3093EB00309157
:104CD000ED003D7F3093ED003091EB00316030937B
:104CE000EB007093EC002093ED005093F0002091C6
:104CF000EE0027FDE5CF80E0089580911E0387FF39
:104D000013C08091E80082FF06C08091E8008B7795
:104D10008093E80004C080911D038111F2CF0895B3
:104D200080911D038823D9F38091E80080FFF8CF9C
:104D30008091E8008E77ECCF2091E4003091E5007F
:104D400095E6A9012091EC00822F817020FF06C01A
:104D50008091E80080FF06C080E008952091E8007F
:104D600022FD1AC080911D03882389F0853089F0C7
:104D70008091EB0085FD0FC02091E4003091E500AB
:104D800042175307F9F29150E1F684E0089582E06A
:104D9000089583E0089581E008950E943B270E94D2
:104DA0004327E0EEF0E0808181608083E8EDF0E071
:104DB00080818F77808319BCA7EDB0E08C918E7FC6
:104DC0008C9380818F7E808310921C0308950F93B3
:104DD0001F93CF93DF930E943B270E944327C8ED88
:104DE000D0E088818F7788838881806888838881F4
:104DF0008F7D888319BC10921D03109219031092A5
:104E00001B0310921A0300EE10E0F80180818B7FE3
:104E1000808388818160888342E060E080E00E9436
:104E20004926E1EEF0E080818E7F8083E2EEF0E0C3
:104E3000808181608083808188608083F8018081A7
:104E40008E7F8083888180618883DF91CF911F91DD
:104E50000F910895E8EDF0E080818F7E8083E7ED8B
:104E6000F0E080818160808384E082BF81E0809374
:104E70001C030C94E726E8EDF0E080818E7F8083B0
:104E80001092E20008951092DA001092E100089565
:104E90001F920F920FB60F9211242F933F934F93AF
:104EA0005F936F937F938F939F93AF93BF93EF9392
:104EB000FF938091E10082FF0BC08091E20082FFAE
:104EC00007C08091E1008B7F8093E1000E94B229AE
:104ED0008091DA0080FF19C08091D80080FF15C052
:104EE0008091DA008E7F8093DA008091D90080FF74
:104EF00096C080E189BD82E189BD09B400FEFDCF85
:104F000081E080931D030E94AF238091E10080FF28
:104F100019C08091E20080FF15C08091E2008E7F71
:104F20008093E2008091E20080618093E2008091B2
:104F3000D80080628093D80019BC85E080931D035F
:104F40000E94C1238091E10084FF2BC08091E20088
:104F500084FF27C080E189BD82E189BD89B5982F92
:104F6000917080FFFBCF8091D8008F7D8093D80017
:104F70008091E1008F7E8093E1008091E2008F7E3E
:104F80008093E2008091E20081608093E200809152
:104F90001903882309F449C084E080931D030E940B
:104FA000C2238091E10083FF29C08091E20083FF4A
:104FB00025C08091E100877F8093E10082E08093AB
:104FC0001D03109219038091E1008E7F8093E10010
:104FD0008091E2008E7F8093E2008091E200806108
:104FE0008093E20042E060E080E00E9449268091E8
:104FF000F00088608093F0000E94C023FF91EF9141
:10500000BF91AF919F918F917F916F915F914F91E0
:105010003F912F910F900FBE0F901F90189519BCC4
:1050200010921D030E94BD2370CF8091E30087FD85
:1050300093E090931D03B3CF1F920F920FB60F9280
:1050400011242F933F934F935F936F937F938F938D
:105050009F93AF93BF93CF93DF93EF93FF93D09141
:10506000E900DF708091EC00C82FC17080FDC0E8BE
:105070001092E9008091F000877F8093F00078948F
:105080000E9460281092E9008091F000886080936F
:10509000F000CD2BCF70C093E900FF91EF91DF912D
:1050A000CF91BF91AF919F918F917F916F915F91C0
:1050B0004F913F912F910F900FBE0F901F90189519
:1050C0001F93CF93DF93CDB7DEB7AA970FB6F894AF
:1050D000DEBF0FBECDBF8EE193E02091F100FC0159
:1050E0002193CF01F3E086329F07B9F70E94CD23C9
:1050F0008091E80083FF1EC180911E0390911F03E1
:105100009A3008F017C1E92FF0E0EB5AF44D0C94F7
:10511000322A803899F0823809F00CC1809122033C
:105120008F70873008F006C18093E9008091EB0012
:1051300085FB882780F91092E90006C080911A0348
:1051400090911B03911182609091E800977F90935A
:10515000E8008093F1001092F1008091E8008E77D2
:10516000E5C0882309F4D3C0823009F0E3C0809100
:1051700020038111D6C0809122038F702FEF280F5A
:10518000263008F0D7C08093E9002091EB0020FF83
:10519000C8C0933031F48091EB0080628093EB00C3
:1051A000C0C09091EB0090619093EB0021E030E063
:1051B00001C0220F8A95EAF72093EA001092EA00D4
:1051C0008091EB008860EACF8111B4C01091200378
:1051D0001F778091E3008078812B8093E30080919A
:1051E000E800877F8093E8000E947D268091E80098
:1051F00080FFFCCF8091E30080688093E30082E031
:10520000111183E080931D0395C08058823008F00F
:1052100091C080912003909121038C3D23E092075F
:10522000A1F583E08A838AE289834FB7F894DE018F
:10523000139620E03EE051E2E32FF0E05093570058
:10524000E49120FF03C0E295EF703F5FEF708E2F77
:1052500090E0EA30C0F0C7968D939D932F5F243184
:1052600059F74FBF8091E800877F8093E8006AE29A
:1052700070E0CE0101960E948C258091E8008B772A
:105280008093E80057C0C096E7CF609122037091E9
:105290002303AE014F5F5F4F0E94CD24BC01892BD9
:1052A00009F448C09091E800977F9093E8008981C5
:1052B0009A810E94EA25E1CF8038E1F58091E800EB
:1052C000877F8093E800809119038093F10045CF98
:1052D000811130C090912003923060F58091E800F8
:1052E000877F8093E800909319030E947D26809128
:1052F0001903882311F084E005C08091E30087FD45
:10530000FACF81E080931D030E94C32313C08091D4
:105310002003813079F481E0933009F080E08093BC
:105320001B031092E9008091E800877F8093E800DA
:105330000E947D268091E80083FF0AC08091E800EA
:10534000877F8093E8008091EB0080628093EB0080
:10535000AA960FB6F894DEBF0FBECDBFDF91CF91F6
:105360001F9108950895CF9380911D038823A1F084
:10537000C091E900CF709091EC00892F817090FD71
:1053800080E8C82B1092E9008091E80083FD0E941C
:105390006028CF70C093E900CF910895991B79E000
:1053A00004C0991F961708F0961B881F7A95C9F7B5
:1053B0008095089587FB082E062687FD819567FD59
:1053C00061950E94CE290EF4919507FC8195089570
:1053D000AA1BBB1B51E107C0AA1FBB1FA617B7071B
:1053E00010F0A61BB70B881F991F5A95A9F7809537
:1053F0009095BC01CD01089597FB072E16F40094FB
:1054000007D077FD09D00E94E82907FC05D03EF4BB
:10541000909581959F4F0895709561957F4F089560
:10542000A1E21A2EAA1BBB1BFD010DC0AA1FBB1FA8
:10543000EE1FFF1FA217B307E407F50720F0A21B1A
:10544000B30BE40BF50B661F771F881F991F1A9487
:1054500069F760957095809590959B01AC01BD01B1
:10546000CF010895EE0FFF1F0590F491E02D0994F0
:105470000E94402A332312F48A1B9B0B0C94512A5E
:10548000A29FB001B39FC001A39F700D811D112485
:10549000911DB29F700D811D1124911D08950E94D0
:1054A000402AB7FF0895821B930B08950E94402A5B
:1054B000A59F900DB49F900DA49F800D911D112468
:1054C0000895B7FF0C94562A0E94562A821B930B0C
:1054D00008958F929F92AF92BF92CF92DF92EF92F8
:1054E000FF92CF93DF93EC01688179818A819B8160
:1054F000611571058105910521F464E279ED8BE573
:1055000097E02DE133EF41E050E00E941A2B490172
:105510005A019B01AC01A7EAB1E40E94562A6B0133
:105520007C01ACEEB4EFA50194010E94642ADC0179
:10553000CB018C0D9D1DAE1DBF1DB7FF03C0019794
:10554000A109B04888839983AA83BB839F77DF91A1
:10555000CF91FF90EF90DF90CF90BF90AF909F9052
:105560008F9008950E94692A089580E091E00E943A
:10557000692A0895B0E0A0E08093000190930101B2
:10558000A0930201B09303010895FC0141505040E3
:1055900030F001900616D1F73197CF010895882792
:1055A00099270895F999FECF92BD81BDF89A992760
:1055B00080B50895A6E1B0E044E050E00C940C2BD7
:1055C000A8E1B0E042E050E00C940C2B262FF999B2
:1055D000FECF92BD81BDF89A019700B4021639F052
:1055E0001FBA20BD0FB6F894FA9AF99A0FBE089523
:1055F0000396272F0E94E72A0E94E62A252F0E9461
:10560000E72A242F0C94E72A0196272F0E94E72AE5
:105610000C94E62ADC01CB01FC01F999FECF06C00F
:10562000F2BDE1BDF89A319600B40D924150504060
:10563000B8F70895052E97FB1EF400940E94312BB5
:1056400057FD07D00E94102A07FC03D04EF40C949B
:10565000312B50954095309521953F4F4F4F5F4FDF
:10566000089590958095709561957F4F8F4F9F4FCE
:105670000895F894FFCF1919191971197119C319DF
:10568000DF1946194619EA19761A851A851A5D1B1B
:105690005D1B661B661B681B661B661B661B5D1B12
:1056A0005D1B6D1B661B661B6D1B8928B1289A2923
:0E56B000B1289A29E42805299A295C2968293D
:1056BE00010000002808641E140A321E01010200B7
:1056CE000A000A0A01191A1B1C1D1E1F202122D9AD
:1056DE00022323822361235D23592301C6976694F7
:1056EE0090913134353332360000000000E200E98B
:1056FE0000EA00B500B600B700CD008301CC008AE9
:10570E00019201940121022302240225022602277E
:10571E00022A02B300B4006F007000818283000180
:10572E00020202020606060909090909090F0F0FEE
:10573E000F0F0F15151518191919191919191919F6
:10574E0019232425252525252500FF01000100000C
:10575E00FFFF0000010001FF00F6F7F4F5E200E99B
:10576E0000EA00B500B600B700CD008301CC008A78
:10577E00019201940121022302240225022602270E
:0E578E00022A02B300B4006F00700081828313
:00000001FF
